:100000000C9491080C94B9080C94B9080C94B90894
:100010000C94B9080C94B9080C94B9080C94B9085C
:100020000C94B9080C94B3290C94AD250C941C269F
:100030000C94B9080C94B9080C94B9080C94B9083C
:100040000C94B9080C94B9080C94B9080C94B9082C
:100050000C94B9080C94B9080C94B9080C944E2867
:100060000C94B9080C94B9080C94B9080C94B9080C
:100070000C94B9080C94B9080C94B9080C94B908FC
:100080000C94B9080C94B9080C94B9080C94B908EC
:100090000C9498280C94B9080C94B9080C94B908DD
:1000A0000C94B9080C94B9080C94B90800407A1063
:1000B000F35A00A0724E18090010A5D4E80000E819
:1000C0007648170000E40B54020000CA9A3B000077
:1000D00000E1F505000080969800000040420F0006
:1000E0000000A08601000000102700000000E803C7
:1000F000000000006400000000000A000000000092
:100100000100000000002C76D888DC674F0823DF50
:10011000C1DFAE59E1B1B796E5E3E453C63AE65123
:10012000997696E8E6C28426EB898C9B62ED407C4A
:100130006FFCEFBC9C9F40F2BAA56FA5F490055AE6
:100140002AF75C936B6CF9676DC11BFCE0E40D470B
:10015000FEF520E6B500D0ED902E0300943577052E
:100160000080841E080000204E0A000000C80C33E6
:100170003333330F986E12831141EF8D2114893B75
:10018000E65516CFFEE6DB18D1844B381BF77C1DF5
:10019000901DA4BBE424203284725E228100C9F148
:1001A00024ECA1E53D27070605040100080A0B0C15
:1001B0000D0900C201000100110011000C0000E156
:1001C00000000A002500250021000096000019000B
:1001D000390039003600127A00001F004600460040
:1001E00044008070000022004D004D004A00004B8A
:1001F00000003600750075007200403800004A00AB
:100200009C009C009900A02800006A00DA00DA0037
:10021000D700802500007200EC00EC00E900C0125D
:100220000000E900DA01DA01D70160090000D70116
:10023000B603B603B303B0040000B3036E076E0742
:100240006B07580200006E07DC0EDC0ED80E2C0186
:100250000000DC0EC11DC11DBE1D6D2F735E32007E
:10026000426172006465672F730044656700560041
:100270006D6D004F686D00530073656300672F73E9
:100280000057534300575343007300636F756E74F8
:1002900000672F73004E6D006D672F68006D6261FF
:1002A00072006D672F680020006D73004465672041
:1002B0006B2F7700200056004B770041680041000B
:1002C0006D672F6800446567206B2F77006B6D00AA
:1002D0006C2F68006B57002500C382C2B0430044F6
:1002E0006567206B2F770020004465670043006737
:1002F0002F7300410025006D7300560025006C002F
:100300006D626172006D7300626172006D6D004F0D
:10031000686D0020005741524D00434F4C4400444B
:1003200065670020006B6D2F680076006300415404
:1003300044430044656700250072706D00005472EC
:10034000616E736D697373696F6E2C4272616B6558
:1003500020456C656374726F6E6963732C496E73AC
:100360007472756D656E7420436C75737465722C50
:1003700048656174696E672F41697200456E6769EF
:100380006E652053706565642C456E67696E6520E7
:100390004C6F61642C456E67696E65204C6F6164BB
:1003A0002C53746174757300456E67696E652053D4
:1003B000706565642C546F72717565207370656328
:1003C00069666965642C456E67696E6520546F7255
:1003D0007175652C5472616374696F6E20436F6E22
:1003E00074726F6C00456E67696E65205370656549
:1003F000642C436861726765204C696D69742C5781
:10040000617374656761746520284E3735292C4205
:100410006F6F737420507265737375726500456EEB
:1004200067696E652053706565642C4941542C578B
:10043000475445204E37352C426F6F737400456E1C
:1004400067696E652053706565642C416363656CF4
:100450002E20506564616C20506F732E2C5468728E
:100460006F74746C652056616C766520416E676CA4
:10047000652C426F6F73742050726573737572656B
:1004800000456E67696E652053706565642C46751E
:10049000656C2054656D702E2C436F6F6C616E74AB
:1004A0002054656D702E2C496E74616B6520416916
:1004B000722054656D702E00456E67696E6520531D
:1004C000706565642C4C6F61642C426F6F7374446B
:1004D00065732C426F6F737441637400456E676976
:1004E0006E65204C6F61642C456E67696E65204CAB
:1004F0006F61642C456E67696E65204C6F61642C7A
:1005000057617374656761746520284E373529001B
:10051000456E67696E652053706565642C456E672E
:10052000696E65204C6F61642C5468726F74746CD2
:10053000652056616C766520416E676C652C417450
:10054000686D6F737068657269630052504D205218
:10055000616E676520312C52504D2052616E676587
:1005600020322C52504D2052616E676520332C5240
:10057000504D2052616E6765203400456E67696E8C
:10058000652053706565642C436F6F6C616E742CCD
:10059000496E6A656374696F6E2054696D696E6730
:1005A0002C5468726F74746C652056616C7665208B
:1005B000416E676C6500456E67696E6520537065B6
:1005C00065642C4C616D62646120436F6E74726F60
:1005D0006C2C526573756C7400456E67696E65208E
:1005E00053706565642C436F6F6C616E742C496E3B
:1005F00074616B65204169722C496E6A6563746928
:100600006F6E2054696D696E6700456E67696E652F
:100610002053706565642C456E67696E65204C6F6C
:1006200061642C496E6A656374696F6E2054696DEC
:10063000696E672C4D6173732041697220466C6F3F
:10064000770052656164696E6573732042697473E3
:100650002C436F6F6C616E742C54696D65207369E7
:100660006E63652C4F42442D53746174757300455D
:100670006E67696E652053706565642C436F6F6C9F
:10068000616E742C4C616D62646120436F6E747294
:100690006F6C2C4C616D62646120436F6E74726F7D
:1006A0006C00456E67696E652053706565642C4308
:1006B000616D73686166742041646A7573746D2E30
:1006C0002C526573756C7400456E67696E652053B6
:1006D000706565642C456E67696E65204C6F61645A
:1006E0002C43616D73686166742041646A7573742C
:1006F0006D2E2C43616D736861667400456E676989
:100700006E652053706565642C43616D7368616626
:10071000742041646A7573746D2E2C43616D736827
:100720006166742041646A7573746D2E0052656150
:1007300064696E65737320426974732C4572726FBD
:100740007220466C61677320492C4572726F72206B
:10075000466C6167732049492C4572726F7220465E
:100760006C6167732049490052656164696E657305
:100770007320426974732C4379636C6520466C6105
:10078000677320492C4379636C6520466C616773FD
:100790002049492C4379636C6520466C616773205E
:1007A00049490056656869636C65204964656E74E3
:1007B0002E2C496D6D6F62696C697A657200456EA9
:1007C00067696E652053706565642C4D6173732095
:1007D00041697220466C6F772C416972204D6173BC
:1007E000732066726F6D2C526573756C740045765C
:1007F00061702E20456D697373696F6E732C4C6147
:100800006D62646120436F6E74726F6C2C526573FD
:10081000756C740056656869636C65205370656516
:10082000642C53776974636820506F736974696FBF
:100830006E7320492C56656869636C65205370653A
:1008400065642C53776974636820506F73697469A9
:100850006F6E73204949004C6F7765722041646167
:1008600070746174696F6E2C4C6F7765722041648F
:100870006170746174696F6E2C456D657267656E29
:10088000637920416972204761702C456D657267FC
:10089000656E637920416972204761700054687207
:1008A0006F74746C652056616C76652C5468726F39
:1008B00074746C652056616C76652C416363656C5D
:1008C0002E20506564616C20506F732E2C41636341
:1008D000656C2E20506564616C20506F732E00454E
:1008E0006E67696E652053706565642C426174742F
:1008F00065727920566F6C746167652C5468726FED
:1009000074746C652056616C766520416E676C6509
:100910002C4F7065726174696E67005468726F74F1
:10092000746C652056616C76652C5468726F7474B3
:100930006C652056616C76652C5468726F74746CAB
:10094000652041646170746174696F6E2C526573C7
:10095000756C7400456E67696E65205370656564DB
:100960002C456E67696E652053706565642C49641B
:100970006C6520526567756C61746F722C4F706581
:10098000726174696E6700456E67696E65205370A9
:100990006565642C49646C6520526567756C61748B
:1009A0006F722C49646C652053746162696C697A5A
:1009B0006174696F6E2C4F7065726174696E670047
:1009C000456E67696E652053706565642C4C6F6178
:1009D00064205374617475732C416363656C2E20BD
:1009E000506564616C20506F732E2C5468726F7464
:1009F000746C652056616C766520416E676C65008D
:100A0000456E67696E652053706565642C456E6739
:100A1000696E652053706565642C426174746572FB
:100A20007920566F6C746167652C47656E657261DD
:100A3000746F7200456E67696E65205370656564FA
:100A40002C456E67696E652053706565642C53652F
:100A50006C656374656420476561722C42617474CF
:100A600065727920566F6C7461676500456E6769C1
:100A70006E652053706565642C456E67696E6520F0
:100A800053706565642C412F432052656164696E23
:100A90006573732C412F4320436F6D7072657373C0
:100AA0006F7200456E67696E652053706565642CD2
:100AB000436174616C7974696320436F6E7665720B
:100AC00074657200456E67696E6520537065656474
:100AD0002C436174616C7974696320436F6E766531
:100AE000727465722C4C616D62646120566F6C7417
:100AF0006167652C526573756C7400526573697318
:100B000074616E63652C48656174657220436F6E15
:100B1000646974696F6E2C526573697374616E6376
:100B2000652C48656174657220436F6E64697469F1
:100B30006F6E00456E67696E65204C6F61642C5363
:100B4000656E736F7220566F6C74616765005365D4
:100B50006E736F7220566F6C746167652C5265738B
:100B6000756C7400456E67696E65205370656564C9
:100B70002C436174616C7974696320436F6E766590
:100B8000727465722C44796E616D6963204661638D
:100B9000746F722C526573756C74004C616D626475
:100BA0006120436F6E74726F6C2C53656E736F723D
:100BB00020566F6C74616765005472696D73004CE8
:100BC000616D62644465732C4C616D626441637451
:100BD0000042616E6B20312C42616E6B203100450A
:100BE0006E67696E652053706565642C456E676934
:100BF0006E65204C6F61642C436F6F6C616E742C5A
:100C0000526573756C7400566F6C746167652C5611
:100C10006F6C746167652C566F6C746167652C56D8
:100C20006F6C7461676500456E67696E652053700F
:100C30006565642C456E67696E65204C6F61642C38
:100C400054696D696E67205265746172646174697C
:100C50006F6E2C54696D696E6720526574617264A1
:100C60006174696F6E00456E67696E6520537065CB
:100C700065642C456E67696E65204C6F61642C5409
:100C8000696D696E67205265746172646174696F21
:100C90006E2C54696D696E6720526574617264616F
:100CA00074696F6E004B6E6F636B20312D342C4B6B
:100CB0006E6F636B20312D342C4B6E6F636B203164
:100CC0002D342C4B6E6F636B20312D34004C6F77BD
:100CD00065722C55707065722C4C6F7765722C554F
:100CE00070706572004D69736669726520436F7537
:100CF0006E7465722C4D697366697265004D697317
:100D000066697265312C4D697366697265322C4D66
:100D1000697366697265332C4D69736669726534EF
:100D200000456E67696E652053706565642C456E7D
:100D300067696E65204C6F61642C4D6973666972DA
:100D4000652C4D69736669726500456E67696E65ED
:100D50002053706565642C436F6F6C616E742C4911
:100D60006E74616B65204169722C49676E697469A4
:100D70006F6E00456E67696E652053706565642C03
:100D8000456E67696E65204C6F61642C5468726FA4
:100D900074746C652056616C766520416E676C6575
:100DA0002C49676E6974696F6E00456E67696E6580
:100DB0002053706565642C456E67696E65204C6FC5
:100DC00061642C496E74616B65204169722C416CC1
:100DD00074697475646500456E67696E652053704B
:100DE0006565642C456E67696E65204C6F61642C87
:100DF00056656869636C652053706565642C4C6F3B
:100E000061642053746174757300456E67696E6523
:100E10002053706565642C42617474657279205644
:100E20006F6C746167652C436F6F6C616E742C49D5
:100E30006E74616B652041697200456E67696E650D
:100E40002053706565642C4D41462C5468726F7454
:100E5000746C652C49676E6974696F6E00456E67C6
:100E6000696E652053706565642C4C6F61642C4914
:100E70006E6A2054696D652C4D414600456E676968
:100E80006E652053706565642C436F6F6C616E7482
:100E90002C4C616D62646120436F6E74726F6C2CB8
:100EA00042617369632053657474696E670000530F
:100EB00074656572696E672C4169726261672C5B4B
:100EC0004E2F415D2C5B4E2F415D00456E67696E74
:100ED000652C5472616E736D697373696F6E2C410A
:100EE00042532C5B4E2F415D004F646F6D657465FE
:100EF000722C456E67696E652053706565642C4F72
:100F0000696C2C436F6F6C616E7400496D6D6F621C
:100F1000696C697A65722C5B4E2F415D2C5B4E2F9C
:100F2000415D2C5B4E2F415D00496E737472756D8F
:100F3000656E742C456E67696E6520636F6E7472A2
:100F40006F6C2C456D657267656E63792C547261A8
:100F50006E73706F6E646572005661726961626C67
:100F60006520636F64652C4B6579207374617475BB
:100F7000732C466978656420636F64652C496D6DD8
:100F80006F62696C697A6572005374617274696E1C
:100F9000672C456E67696E65202845434D292C4BAB
:100FA000657920636F6E646974696F6E2C4E756D20
:100FB000626572206F6600436F6F6C616E742054BF
:100FC000656D702C4F696C206C6576656C2C4F6973
:100FD0006C2C5B4E2F415D004F646F6D65746572C4
:100FE0002C4675656C206C766C2C4675656C53656B
:100FF0006E642C54416D6269656E74005370656552
:10100000642C456E67696E652053706565642C4F6E
:10101000696C2070726573737572652C54696D65A7
:101020000000000000240027002A002D00300000EE
:1010300000000200090F0000030401000C00000082
:101040000000000000000000000000000000080B8D
:101050000002020200000904000001020200000573
:1010600024001001052401010104240206052406C0
:1010700000010705810310004009040100020A0075
:10108000000007050202400000070583024000003F
:101090000403090412010002EF02014041233680DB
:1010A00000010102030141726475696E6F204C4CAE
:1010B000430041726475696E6F204C656F6E61729A
:1010C000646F00000000002300260029002C002F80
:1010D0000000000000250028002B002E0031000435
:1010E00004040404030405020202020403020202CF
:1010F00002060606060606040402020204040408A8
:10110000020110408040102040804080080204010D
:101110008040201002011080102040402000B52A9D
:101120008F2C11241FBECFEFDAE0DEBFCDBF24E04D
:10113000A4E3B2E001C01D92A138B207E1F712E0CA
:10114000A0E0B1E0EEEFFDE602C005900D92A43301
:10115000B107D9F718E0C0E9D8E004C02197FE0133
:101160000E942E32CF38D107C9F70E94DB2B0C9496
:10117000F2360C940000DC0114962D913C911597E9
:10118000232B41F0ED91FC9181E09081992319F09E
:1011900080E0089581E00895FC0180910B0388238D
:1011A00011F13FB7F89482E08093E9002091F200BA
:1011B000822F90E01816190614F481E090E088233D
:1011C00039F0289844E640930A034091F1004083A7
:1011D000222339F02091F200211103C02BE6209345
:1011E000E8003FBF08958FEF9FEF08952FB7F89461
:1011F00083E08093E9009091E800892F807295FF49
:1012000004C09091F20080E4891B2FBF0895809163
:10121000020381110DC082E08093FE0284E080937E
:10122000FF02109201031092000381E080930203F9
:101230008EEF92E00895CF93DF931F92CDB7DEB784
:101240006983DC01ED91FC910280F381E02D41E0A6
:1012500050E0BE016F5F7F4F09950F90DF91CF91F6
:10126000089583E08093E9008091F200882319F0CB
:101270008AE38093E80008950E94F60890E00895BC
:10128000CF93DF931F92CDB7DEB7FC0184859585A0
:1012900097FD08C02FEF3FEF358724870F90DF9130
:1012A000CF910895CE0101960E94CC08019719F4C0
:1012B000898190E0F3CF8FEF9FEFF0CF0F931F93D3
:1012C000CF93DF931F92CDB7DEB78C01FC018485ED
:1012D000958597FF0BC0CE0101960E94CC0801971F
:1012E00071F4898190E0F80195878487F8018485FD
:1012F00095850F90DF91CF911F910F9108958FEFFA
:101300009FEFF1CFFC018485958597FD0BC09FB7BA
:10131000F89482E08093E9008091F2009FBF90E012
:10132000019608959FB7F89482E08093E900809138
:10133000F2009FBF90E008954091F8025091F902A9
:101340002091F6023091F70242175307B4F49091BE
:10135000E8009570E1F39091E80092FD19C0809348
:10136000F1008091F8029091F90201968F7399270C
:10137000892B19F48EEF8093E8008091F802909108
:10138000F90201969093F9028093F80281E00895A2
:1013900080E00895DF92EF92FF920F931F93CF9317
:1013A000DF93D82E8A01EB017B01E40EF51ECE15EA
:1013B000DF0559F0D7FE12C0FE0184910E949C09FE
:1013C00021968111F4CF0FEF1FEFC801DF91CF916C
:1013D0001F910F91FF90EF90DF9008958881EECFDD
:1013E0000F931F93CF93DF931F92CDB7DEB782E0A9
:1013F000898342E450E06EE470E180E80E94CA090B
:101400000E940709DC0112960D911C91011511052E
:1014100089F0D801ED91FC910280F381E02DBE01AD
:101420006F5F7F4FC801099597FD04C0F8010085E3
:101430001185ECCF89810F90DF91CF911F910F9192
:101440000895615030F02091F100FC012083019655
:10145000F8CF289884E680930A0308950895AF9200
:10146000BF92CF92DF92EF92FF920F931F93CF9391
:10147000DF936C017B018B01040F151FEB015E01F3
:10148000AE18BF08C017D10759F06991D601ED9188
:10149000FC910190F081E02DC6010995892B79F727
:1014A000C501DF91CF911F910F91FF90EF90DF90D9
:1014B000CF90BF90AF90089581508F3008F047C013
:1014C000E82FF0E0EA59F54F0C942E32830A870A90
:1014D000750A7B0A7F0AA70AA70AA70A8A0A900A3E
:1014E000940A980A9E0AA70AA20A809180008F7720
:1014F000809380000895809180008F7DF9CF809146
:101500008000877FF5CF84B58F7784BD089584B53B
:101510008F7DFBCF809190008F778093900008950E
:10152000809190008F7DF9CF80919000877FF5CFDB
:101530008091C0008F778093C00008958091C00093
:101540008F7DF9CF8091C200877F8093C20008957C
:10155000CF93DF93282F30E0F901E15DFF4E8491B6
:10156000F901E250FF4ED491F901E152FF4EC491CE
:10157000CC23A1F081110E945C0AEC2FF0E0EE0F69
:10158000FF1FED53FF4EA591B491EC91ED2381E047
:1015900090E009F480E0DF91CF91089580E090E041
:1015A000FACF1F93CF93DF93282F30E0F901E15D4D
:1015B000FF4E8491F901E250FF4ED491F901E152BE
:1015C000FF4EC491CC23A9F0162F81110E945C0A12
:1015D000EC2FF0E0EE0FFF1FEF52FF4EA591B491FC
:1015E0008FB7F894EC91111108C0D095DE23DC93ED
:1015F0008FBFDF91CF911F910895DE2BF8CF60E070
:101600008091D7030C94D10AAF92BF92CF92DF9210
:10161000EF92FF920F931F93CF93DF930FEF10E0A2
:10162000081B190BC7E0D0E0AA24A394B12C9BE0BF
:10163000C92ED12C2BE1E22EF12C60E08091D60353
:101640000E94D10AC5010C2E02C0880F991F0A946E
:10165000E2F78023912318161906ECF461E08091DB
:10166000D7030E94D10AC6010197F1F761E080918A
:10167000D6030E94D10AC7010197F1F72197E8F636
:10168000DF91CF911F910F91FF90EF90DF90CF905E
:10169000BF90AF9008950E94FF0AE5CFCF93DF93EC
:1016A00090E0FC01E250FF4E249181529F4EFC01DC
:1016B00084918823D1F090E0880F991FFC01EF5DA1
:1016C000FF4EA591B491FC01EF52FF4EC591D4910C
:1016D00061110EC09FB7F8948C91E22FE0958E2394
:1016E0008C932881E223E8839FBFDF91CF910895F7
:1016F0008FB7F894EC91E22BEC938FBFF6CFCF939A
:10170000DF93C6EDD3E061E08A810E944E0B61E079
:101710008A810E94D10A8FE990E00197F1F760E099
:101720008A810E94D10A60E08A810E944E0B8FE874
:1017300090E00197F1F7DF91CF910895CF93C82FF3
:101740000E947F0B8C2F90E00E94040B83E790E0B7
:101750000197F1F7CF910C94FF0A3FB7F89480916D
:10176000EC029091ED02A091EE02B091EF0226B54D
:10177000A89B05C02F3F19F00196A11DB11D3FBFC9
:10178000BA2FA92F982F8827BC01CD01620F711D98
:10179000811D911D42E0660F771F881F991F4A9592
:1017A000D1F708958F929F92AF92BF92CF92DF921E
:1017B000EF92FF926B017C010E94AD0B4B015C012B
:1017C000C114D104E104F104B9F00E94AD0B681911
:1017D00079098A099B09683E73408105910580F368
:1017E00021E0C21AD108E108F10888EE880E83E0F2
:1017F000981EA11CB11CE4CFFF90EF90DF90CF901A
:10180000BF90AF909F908F9008958F929F92AF92CC
:10181000BF92CF92DF92EF92FF920F931F93CF93DD
:10182000DF936C017B018A0180913901882309F4DF
:101830005CC080910B03882309F457C08091FD029E
:1018400080FF05C08091E00082608093E000E801A5
:10185000B12C8AEFA82E93E0892E2AE3922E2097AE
:1018600011F4BB20D9F10E94F60881110AC0AA9494
:10187000AA20D9F161E070E080E090E00E94D20BF4
:10188000EECF8C171D0611F00CF08C2F9FB7F8943B
:101890008092E9002091E80025FD02C09FBFDFCFC4
:1018A000282F30E0C21BD30BF701815020F041916B
:1018B0004093F100FACFE20EF31EBB2021F090928C
:1018C000E800B12CEBCF8091E80085FDE7CF909246
:1018D000E800BB24B394209709F3F3CF5D9884E626
:1018E0008093FC02101611063CF081E090E0F601B6
:1018F0009383828310E000E0C801DF91CF911F91B4
:101900000F91FF90EF90DF90CF90BF90AF909F909E
:101910008F9008952FB7F8946091E8027091E902D2
:101920008091EA029091EB022FBF0895CF92DF924F
:10193000EF92FF920E948A0C6B017C0128EEC20E8E
:1019400023E0D21EE11CF11C8091790490917A046D
:10195000DC01ED91FC910084F185E02D0995892B46
:10196000A1F40E948A0C6C157D058E059F0560F31D
:1019700010927504809177048F5F8093770480E0E4
:10198000FF90EF90DF90CF9008958091790490912F
:101990007A04DC01ED91FC910284F385E02D099538
:1019A000EFCFAF92BF92CF92DF92EF92FF921F9351
:1019B000CF93DF937B016C01D0E0C0E05B0181E05D
:1019C000A81AB108D6011D916D01809179049091FA
:1019D0007A04DC01ED91FC910190F081E02D612F02
:1019E0000995CA15DB05BCF40E94960C1095811769
:1019F00091F010927504809178048F5F8093780441
:101A000080E0DF91CF911F91FF90EF90DF90CF901A
:101A1000BF90AF9008952196EC16FD0699F680913F
:101A200076048F5F8093760481E0EBCF5F926F92B4
:101A30007F928F929F92AF92BF92CF92DF92EF925E
:101A4000FF920F931F93CF93DF93DA012D913C9177
:101A500021153105A9F0621773070CF06CC080E006
:101A6000DF91CF911F910F91FF90EF90DF90CF907A
:101A7000BF90AF909F908F907F906F905F900895F0
:101A8000552453948A017B013C010E948A0C4B012E
:101A90005C01B0ED8B0EB7E09B1EA11CB11CD0E029
:101AA000C0E06301CC0EDD1E8091790490917A0430
:101AB000DC01ED91FC910084F185E02D0995892BE5
:101AC00009F465C00E94960C682FF60181936F019E
:101AD0002196D8018D919C911197892B09F03EC0D8
:101AE000C130D105D9F5862F90E001968D939C9356
:101AF000E816F9060CF4B3CF511041C0F80180810B
:101B00009181C817D90761F48091790490917A0482
:101B10006095DC01ED91FC910190F081E02D09953B
:101B20000E948A0C4B015C01F8EE8F0EF3E09F1EC1
:101B3000A11CB11CB9CF512CA5CF209709F4B1CF6E
:101B4000F801808191818C179D0709F0AACF8091BF
:101B500076048F5F8093760481E082CF552071F206
:101B6000C230D10561F480917604681741F010927B
:101B70007504809178048F5F8093780470CFF801AA
:101B800080819181C817D9070CF4BECFC9CF0E94BC
:101B90008A0C681579058A059B0578F21092750400
:101BA000809177048F5F8093770459CF85ED809380
:101BB000BC008091BC0084FDFCCF1092C10208954E
:101BC00020919D02260F3327331F21323105ECF47B
:101BD0002091C102FC0190E080E0243069F082E0B5
:101BE0000895A0919D022191AC0143585D4FA40F2F
:101BF000B52FB11D2C930196861798F380919D0205
:101C0000680F60939D0280E0089581E00895089533
:101C10008FEF9FEF08958FEF9FEF089580917C02E3
:101C200090E09195819591090895CF93DF93CB0131
:101C3000EA01642F0E94E00DCE01DF91CF9108955B
:101C4000CF93DF931F92CDB7DEB7698361E0CE01FA
:101C500001960E94E00D81E090E00F90DF91CF911E
:101C60000895DC015196ED91FC9152979081509628
:101C70008C91809589238083089520917A023091F8
:101C80007B022817390781F49091790280917802BC
:101C9000981751F0E0917902F0E0E85CFD4F808107
:101CA000082E000C990B08958FEF9FEF0895209157
:101CB0007A0230917B022817390739F48FB7F894EC
:101CC00010927802109279028FBF089520917A02C3
:101CD00030917B022817390771F4809178022091A6
:101CE000790290E0805C9F4F821B910960E470E074
:101CF0000E941A32089590E080E0089520917A02BF
:101D000030917B0228173907B9F4909179028091BC
:101D10007802981789F0E0917902F0E0E85CFD4FD5
:101D200080812091790230E02F5F3F4F2F7333275E
:101D30002093790290E008958FEF9FEF089520E0BF
:101D400001972FEF8F3F9207D9F7089590E080E039
:101D50000895CF92DF92EF92FF920F931F93CF934C
:101D6000DF93EC018FEF9FEF9BAB8AAB9DAB8CAB0E
:101D70008EA99FA9A8ADB9AD8AAF9BAFACAFBDAFDF
:101D80000E948A0C6EAB7FAB88AF99AFE881E231DD
:101D900008F0E251F0E0EA55FE4FE49190917B00AB
:101DA0008E2F880F880F80729F7D892B80937B00F8
:101DB000E770E064E0937C0080917A008064809317
:101DC0007A0080917A0086FDFCCF80917800209186
:101DD0007900322F282F4A815B81FE01389690E0EE
:101DE00080E0841795073CF46191719126173707BD
:101DF00024F00196F6CF8FEF9FEF4EA95FA968AD53
:101E000079ADDE01AA5BBF4F2D913C911197FE0188
:101E1000E85BFF4F2817390721F040835183628325
:101E200073838D939C9300811181228133816A0198
:101E30007B01C01AD10AE20AF30A0E811F8130E049
:101E400020E00C151D052E053F0508F528A939A928
:101E500028173907E1F0DE01DE96CD90DD90ED9098
:101E6000FC901397FE01EE5BFF4FC082D182E282AD
:101E7000F3828F3F980729F04D935D936D937C9388
:101E800013979BAB8AAB3DAB2CAB99AB88ABDF9187
:101E9000CF911F910F91FF90EF90DF90CF90089519
:101EA000AF92BF92CF92DF92EF92FF920F931F9368
:101EB000CF93DF930E947F0B80910C03082E000CC0
:101EC000990B0E94040B61E08091D7030E94D10A14
:101ED000C0910D03CF5F0CE410E03BE4E32EF12C46
:101EE0008091D8030E94A80A892B81F18DE0C82E29
:101EF00083E0D82EEE24E394F12CD0E02BE9A22E3F
:101F0000B12CCE15DF054CF181E0E816F10411F09B
:101F10000E94FF0AC5010197F1F7F60181916F0157
:101F2000082E000C990B0E94040B0E94FF0A0DED75
:101F300015E08091D8030E94A80A892B19F401505A
:101F40001109B9F7FFEFEF1AFF0ADBCF01501109B2
:101F500069F2C7010197F1F7C3CFDF91CF911F91CC
:101F60000F91FF90EF90DF90CF90BF90AF900C94C7
:101F7000FF0A83E580930C0386E080930D0380E8DD
:101F800080930E0310920F031092100381E0809350
:101F900011038093120380910C0321E030E09091B3
:101FA0000D039217130644F0F901E45FFC4F908192
:101FB00089272F5F3F4FF3CF8150809313030C94F9
:101FC000500F83E580930C0386E080930D0382E835
:101FD00080930E0310920F031092100380E48093FD
:101FE000110388E58093120380910C0321E030E017
:101FF00090910D039217130644F0F901E45FFC4F32
:10200000908189272F5F3F4FF3CF81508093130337
:102010000C94500FDF92EF92FF920F931F93CF9388
:10202000DF93EC01898D9A8D892B71F481E090E02A
:102030009B838A8390E080E0DF91CF911F910F9185
:10204000FF90EF90DF900895162FDFB6F8948B8DF8
:1020500081FD29C0CE010E94310E898D9A8D059691
:102060000E949F0E8B8D98E0E92EF12C01E081FFFC
:1020700028C0812F8023F1F0CE010E94310E898D7E
:102080009A8D0E949F0E000F81E0E81AF10889F7EF
:10209000CE010E94310EDFBE898D9A8D0E949F0E67
:1020A00081E090E0C9CFE989FA8980819889892BFC
:1020B0008083D3CFE989FA8980819889892B8083AD
:1020C000DECF812F8023B1F0E989FA898081988958
:1020D000892B8083898D9A8D0E949F0E000F81E04D
:1020E000E81AF10871F7E989FA8980819889892BC2
:1020F0008083D1CFCE010E94310EECCF0F931F937E
:10210000CF93DF93FC01048115810115110539F48A
:10211000FB011082DF91CF911F910F9108954150E3
:1021200051094017510708F48A01EB01FC01608155
:102130007181A801CE010E944234C00FD11F1882C4
:10214000E9CFFF920F931F93CF93DF93F82E8B016C
:10215000DB01CD91DC91209761F08991882349F0D2
:10216000082E000C990B0E942A34FE0131978083BF
:10217000F4CF86E580930C03F8014481558184E017
:10218000840F80930D0386E280930E0310920F0359
:10219000F09210034F5F5F4F29F061E173E0C801D7
:1021A0000E947E1080910C0321E030E090910D039D
:1021B0009217130644F0F901E45FFC4F90818927E0
:1021C0002F5F3F4FF3CFD8011496ED91FC91E45F60
:1021D000FC4F81508583DF91CF911F910F91FF902C
:1021E0000C94500F0F931F93CF93DF938C01EB014F
:1021F000FC01808191810097E1F06881798161150E
:102200007105A9F0428153812C813D81421753070A
:1022100070F00E943B348C819D81F801958384830A
:102220001D821C82DF91CF911F910F9108950E9412
:10223000E43288819981F801918380838A819B812E
:10224000938382838C819D819583848319821882F4
:102250001B821A82E5CFCF93DF93EC0188819981AD
:10226000009711F00E94E432198218821D821C82AC
:102270001B821A82DF91CF910895FC0180819181A8
:10228000009711F00C94E4320895CF93DF93EC01A2
:1022900042960E943D11CE010C960E943D11CE0146
:1022A0000696DF91CF910C943D110F931F93CF931E
:1022B000DF93EC0188819981009759F02A813B8155
:1022C0002617370730F081E0DF91CF911F910F91F2
:1022D00008958B016F5F7F4F0E946D33009759F017
:1022E000998388831B830A832C813D81232B59F793
:1022F000FC011082E8CF80E0E7CFEF92FF920F93CE
:102300001F93CF93DF936115710541F480E0DF9156
:10231000CF911F910F91FF90EF90089541155105B6
:10232000B1F07B01EC010C811D81040F151FB80178
:102330000E945511882351F3288139818C819D8118
:10234000B701820F931F0E943B341D830C8381E0F1
:10235000DECFCF93DF93EC01FB0101900020E9F782
:102360003197AF01461B570B0E947D11811103C0AD
:10237000CE010E942B11CE01DF91CF910895CF9312
:10238000DF93EC01FB0144815581608171810E94E2
:102390007D11811103C0CE010E942B11CE01DF916E
:1023A000CF910895EF92FF920F931F93CF93DF93F6
:1023B000EC018B01CB010E944D2D7C01BC01CE01B3
:1023C0000E94551181110BC0CE010E942B11CE012C
:1023D000DF91CF911F910F91FF90EF900895FD82B3
:1023E000EC82B801888199810E94462DF0CFEF924E
:1023F000FF920F931F93CF93DF93EC017B018A0130
:10240000BA010E94551181110BC0CE010E942B11FF
:10241000CE01DF91CF911F910F91FF90EF90089522
:102420001D830C83B701888199810E943B34F0CFD2
:10243000FB0101900020E9F73197AF01461B570BD4
:102440000C94F7110F931F93CF93DF93CDB7DEB7A3
:1024500029970FB6F894DEBF0FBECDBF8C01862F33
:10246000F8011182108213821282158214824AE0CE
:10247000BE016F5F7F4F90E00E948D2DBE016F5FA8
:102480007F4FC8010E94181229960FB6F894DEBF3C
:102490000FBECDBFDF91CF911F910F910895CF93C4
:1024A000DF93EC01FB018617970749F0608171818A
:1024B0006115710541F0448155810E94F711CE01EB
:1024C000DF91CF9108950E942B11F9CFFC01118269
:1024D000108213821282158214820C944F12FC0116
:1024E0001182108213821282158214826115710585
:1024F00051F0FB0101900020E9F73197AF01461B35
:10250000570B0C94F7110895CF93DF93EC016BEA0E
:1025100071E006960E946F126BEA71E0CE010C9694
:102520000E946F126BEA71E0CE014296DF91CF916B
:102530000C946F122F923F924F925F926F927F9204
:102540008F929F92AF92BF92CF92DF92EF92FF92C3
:102550000F931F93CF93DF93CDB7DEB7CE5CD10936
:102560000FB6F894DEBF0FBECDBF2DB73EB7C35335
:10257000DF4F39832883CD5CD0400E948A0CC95438
:10258000DF4F688379838A839B83C75BD04087E270
:1025900094E00E94A90E8BED93E00E94A90E809119
:1025A0005704909158048E319105D9F480916504B7
:1025B00090916604A0916704B09168048053984F8D
:1025C000AF4FBF4F40915D0450915E0460915F0436
:1025D00070916004481759076A077B0728F084E068
:1025E0000DC08B379105E9F080910B0490910C049C
:1025F0008B379105C1F04E97C1F483E08093370289
:1026000090913602843099F481E0982790933602B5
:102610001092F2021092F10280932D011092750433
:1026200036C081E0EBCF82E0E9CF80E0E7CF2091B8
:10263000F00221110C9433231092F50210927504CC
:102640000E94B90F1092F2021092F10281E0E4CFE1
:102650008F5F8093F4020C944923823041F480917F
:10266000F402811102C083E1F4CF8150F2CFB09027
:102670007504B11008C18091F50290912D0194303C
:1026800010F40C94A223882311F40C947D230E944F
:10269000B90F0C947D230C96883A910511F00C9497
:1026A0009624F801148A138A0C94C72488E09E307B
:1026B00011F40C940F2582E09F3011F40C940F2537
:1026C00084E0903111F40C940F2581E0913111F4E4
:1026D0000C940F25A92FA651BB0BAD010C940B2513
:1026E0008A2F2830310561F081E02930310541F031
:1026F000CB0102C0959587954A95E2F78170A8278E
:10270000A9010C944825809375046BEA71E0CE0111
:1027100087589F4F0E946F128E010F5B1F4F96EAE2
:10272000892E91E0992EC956DF4F19821882C75918
:10273000D040AE0149565F4F60E470E08A2D952D80
:102740000E94160D8823A9F0C956DF4F28813981D0
:10275000C759D040232B69F09B81993009F491C06F
:10276000963FA9F010927504809178048F5F809352
:102770007804CE0187589F4F0E943D1181E0BB2015
:1027800011F40C94A82580932D010C947D236A2DBF
:10279000752DCE018F599F4F0E946F12C956DF4F82
:1027A000C880D980C759D040B2E0CB1AD108B3E075
:1027B0006B2E712CE3E0CE16D10420F0360183E0BD
:1027C000C82ED12C6BEA71E0C8010E946F12A79647
:1027D000EEACFFACA797CE14DF0400F56E147F04B7
:1027E00008F47301A396EEADFFADA397EE0DFF1DA8
:1027F00070801082A3966EAD7FADA3976C0D7D1D8A
:10280000C80161157105A1F10E941812A3968EAD41
:102810009FADA397E80EF91ED7017C92F801448181
:10282000558160817181CE0187589F4F0E947D1133
:10283000C8010E943D11809176041F928F939F9250
:102840008F921F930F930E94513464E070E0C8018F
:102850000E94D10C0F900F900F900F900F900F903F
:10286000811109C0CE018F599F4F0E943D1181CF28
:102870000E942B11CBCFCE018F599F4F0E943D114B
:1028800052CFB82E76CF8091F20281113BC00E94C8
:10289000E10F6CEA71E0CE0101960E946F12BE0159
:1028A0006F5F7F4F88E190E00E94A110CE010196FA
:1028B0000E943D1165E070E080E090E00E94D20B44
:1028C0006091D9037091DA03CE0101960E946612DD
:1028D000BE016F5F7F4F80E290E00E94A110CE01A9
:1028E00001960E943D1165E070E080E090E00E945A
:1028F000D20B64EF71E080E090E00E94D20B81E0A7
:102900008093F20280913402C954DF4F28813981CB
:102910004A815B81C75BD040281B310941095109BD
:10292000DA01C901C397A105B10514F40C947D2304
:102930004DB75EB7CD53DF4F59834883C35CD0405A
:102940006DB77EB7605671090FB6F8947EBF0FBEA3
:102950006DBF8DB79EB701964C017C010DB71EB7B8
:102960000F591F4FC7010E94841298E1E90EF11C14
:102970000E151F05B9F7E091D903F091DA038091A4
:10298000F40290E0880F991F27813085820F931FF2
:10299000DC010D911C91D680EDB7FEB7C753DF4F18
:1029A000F983E883C95CD040CE0187589F4F0E94CD
:1029B00084121F930F93809176041F928F938AEB5A
:1029C00091E09F938F939E012F5F3F4F79013F933B
:1029D0002F930E94513465E070E0C7010E94D10C32
:1029E0004DB75EB7485F5F4F0FB6F8945EBF0FBE3E
:1029F0004DBF8823C9F0CB54DF4F19821882C55BC5
:102A0000D040AE014B545F4F60E470E0C7010E94BC
:102A1000160D8B81873E09F41DC1109275048091BB
:102A200078048F5F80937804CE0187589F4F0E946F
:102A30004511C753DF4F48815981C95CD0400FB65B
:102A4000F8945EBF0FBE4DBF8091350281110C948A
:102A50001E2180919203909193030297D8F0809168
:102A60008C0390918D030297A8F08091860390913A
:102A70008703029778F080918003909181030297F9
:102A800048F08091F102811105C081E08093F1024C
:102A90000E94E10F80919203909193030297B8F006
:102AA00080918C0390918D03029788F0809186032A
:102AB00090918703029758F0809180039091810351
:102AC000029728F08091F10281110C9466206BED41
:102AD00071E0CE0101960E946F12BE016F5F7F4FC1
:102AE00080E390E00E94A110CE0101960E943D116A
:102AF00065E070E080E090E00E94D20B69EE71E04A
:102B0000CE0101960E946F12BE016F5F7F4F88E376
:102B100090E00E94A110CE0101960E943D1165E057
:102B200070E080E090E00E94D20B8401045F1F4FB0
:102B3000C8010E94BB0881110C94FE20B801CE018F
:102B400001960E94661269ED71E0CE0101960E9425
:102B5000A911B4016E5E7F4F0E94BF11BC018EE8C7
:102B600093E00E944F12CE0101960E943D11840114
:102B70000C5D1F4FC8010E94BB0881110C940621F7
:102B8000B801CE0101960E94661269ED71E0CE0196
:102B900001960E94A911B401665D7F4F0E94BF118A
:102BA000BC0188E893E00E944F12CE0101960E947A
:102BB0003D118401045C1F4FC8010E94BB088111B4
:102BC0000C940E21B801CE0101960E94661269EDA7
:102BD00071E0CE0101960E94A911B4016E5B7F4F96
:102BE0000E94BF11BC0182E893E00E944F12CE0107
:102BF00001960E943D1184010C5A1F4FC8010E948A
:102C0000BB0881110C941621B801CE0101960E94D7
:102C1000661269ED71E0CE0101960E94A911B4011E
:102C2000665A7F4F0E94BF11BC018CE793E00E945F
:102C30004F12CE0101960E943D11C954DF4F5881B9
:102C4000C75BD0405093340210922C0101E010E099
:102C50000C94C021CB54DF4F88819981C55BD04053
:102C6000049763E070E00E941A32CB53DF4F798300
:102C70006883C55CD040653071050CF0CECE6BEA40
:102C800071E0CE0181559F4F0E946F1257E1D5121E
:102C900034C169E57FE007311105D1F00CF00CC1BA
:102CA00068ED7FE00230110599F044F46CEF7FE0AD
:102CB0000130110569F06EEA7EE00AC067EB7FE043
:102CC0000330110529F069E87FE00631110599F715
:102CD000CE0181559F4F0E94D211CD54DF4F4881C4
:102CE0005981C35BD0404F5F5F4F8DB79EB7841B48
:102CF000950B0FB6F8949EBF0FBE8DBF0DB71EB7D4
:102D00000F5F1F4F4115510531F0B801CE018155BC
:102D10009F4F0E947E1062EC71E0C8010E94562D08
:102D20006C01C554DF4FF982E882CB5BD040C354BD
:102D3000DF4F19821882CD5BD040C154DF4F19821A
:102D40001882CF5BD0401E0191E4290E311CA1E610
:102D5000B0E0AC0FBD1F1C96CF53DF4FB983A883E3
:102D6000C15CD040E1E6F0E0EC0FFD1F7296C95364
:102D7000DF4FF983E883C75CD040CB53DF4F288116
:102D80003981C55CD040C354DF4F48815981CD5B48
:102D9000D0404217530714F00C945F204F5F5F4FF1
:102DA000C354DF4F59834883CD5BD040C554DF4FB8
:102DB000A881B981CB5BD04013967C901397149671
:102DC0000C91149715961C91B601CE0187559F4F13
:102DD0000E946F12CE018F599F4F0E9484126BEA9E
:102DE00071E0CE018D559F4F0E946F126BEA71E02A
:102DF000CE0183569F4F0E946F12E72DF0E0C5531E
:102E0000DF4FF983E883CB5CD040A02EB12CC12EDC
:102E1000D12CEFEFE70DE63410F00C9449200E2E84
:102E2000000CFF0BEA5EF84E0C942E32C718E11925
:102E3000021A231A4A1A651A861AA71AC81AEB1A0E
:102E4000F71A201B411B641B851B49204920A61B28
:102E5000C71BDB1BF81B191C3A1C401C611C841C83
:102E6000921CB91C4920C71CD91C4920DC1CEE1C33
:102E7000111D321D4B1D541D771D7A1DA71DB81D38
:102E8000E51D0C1E381E5F1E751E8A1E9B1EB11E80
:102E9000D41ED71EFA1E231F321F441F531F492062
:102EA000631F661F49207B1F49209C1FAA1FCD1F3F
:102EB000E11F0A201F20342069EE7EE00233110555
:102EC00009F406CF6CF469E27FE00831110509F4DA
:102ED000FFCE6BE07FE00931110509F4F9CEEBCEAE
:102EE0006BEC7EE00D37110509F4F2CE6FEA7EE05F
:102EF0000E37110509F4ECCEDECE61E0D612EDCE30
:102F0000F8013197ED37F10508F03EC1E657F84E6C
:102F10000C942E3207180A180D18101813181618CA
:102F2000C418C418C41819181C18C418C4181F18B9
:102F300022182518C4182818C4182B18C4182E18BD
:102F40003118C418C4183418C4183718C4183A18DB
:102F50003D18401843184618C41849184C18C4188E
:102F6000C418C4184F18C4185218C418C4185518D7
:102F7000C418C418C41858185B18C4185E1861180F
:102F800064186718C418C418C4186A186D18701823
:102F9000C4187318C4187618C418C418C41879183B
:102FA000C418C418C418C418C418C4187C18C41889
:102FB000C418C4187F18C418C418C418C4188218B8
:102FC0008518C418C41888188B18C418C4188E180B
:102FD000C418C418C418C4189118941897189A18CB
:102FE000C418C418C418C4189D18C418C418A0184C
:102FF000A318C418A618A918AC18AF18B218B51899
:10300000B818BB18C418BE18C418C418C1186CE787
:103010007EE05ECE6DE57EE05BCE6AE37EE058CE7C
:103020006AE07EE055CE67ED7DE052CE6AEA7DE053
:103030004FCE63E77DE04CCE6AE47DE049CE61E2AD
:103040007DE046CE6DEF7CE043CE65EE7CE040CE89
:103050006DEC7CE03DCE65EA7CE03ACE66E67CE055
:1030600037CE67E27CE034CE67E07CE031CE6FEDB6
:103070007BE02ECE61ED7BE02BCE6FEB7BE028CEAC
:1030800069EB7BE025CE6BE97BE022CE64E67BE05A
:103090001FCE6EE47BE01CCE63E37BE019CE6BEFCA
:1030A0007AE016CE64EC7AE013CE63EA7AE010CED2
:1030B0006CE67AE00DCE64E37AE00ACE60E07AE076
:1030C00007CE60EC79E004CE67E879E001CE64E5F4
:1030D00079E0FECD6BE179E0FBCD6FED78E0F8CDE6
:1030E0006DE978E0F5CD67E578E0F2CD64E178E070
:1030F000EFCD6EEE77E0ECCD6EEB77E0E9CD63EAF5
:1031000077E0E6CD68E677E0E3CD6DE277E0E0CD0D
:103110006CEF76E0DDCD68EC76E0DACD62EA76E061
:10312000D7CD6FE676E0D4CD62E476E0D1CD6AE02B
:1031300076E0CECD69ED75E0CBCD66EB75E0C8CD20
:103140006BE775E0C5CD6BE475E0C2CD60E175E07D
:10315000BFCD6CED74E0BCCD68EB74E0B9CD61E837
:1031600074E0B6CD6EE374E0B3CD6EE174E0B0CD43
:1031700065EE73E0ADCD68EA73E0AACD6CE773E06D
:10318000A7CD6EE373E0A4CD6DE373E0A1CDB501EF
:103190000B2C000C880B990B0E94F02F2DEC3CECB3
:1031A0004CE45EE30E942B302B013C01B6010D2C58
:1031B000000C880B990B0E94F02F9B01AC01C301FE
:1031C000B2010E942B302B013C0169E373E0CE0178
:1031D00083569F4F0E94D211CF55DF4F888199812E
:1031E000C15AD040892B89F1810122E044E0C3011A
:1031F000B2010E94282DB101CE018F569F4F0E942F
:103200006F12BE016F567F4FCE0189569F4F0E94AD
:10321000661269ED71E0CE0189569F4F0E94A91197
:10322000BE0163567F4F0E94BF11BC01CE018D5578
:103230009F4F0E944F12CE0189569F4F0E943D1111
:10324000CE018F569F4F0E943D11C553DF4F4881DD
:103250005981CB5CD040A3965FAF4EAFA397A596A4
:10326000BFAEAEAEA597A796DFAECEAEA797B10123
:10327000CE018F569F4F0E946F12BE016F567F4F37
:10328000CF53DF4F88819981C15CD0400E94F210FA
:10329000CE018F569F4F0E943D11BE0163567F4F56
:1032A000C953DF4F88819981C75CD0400E944F127B
:1032B000CE0183569F4F0E943D11CE018D559F4FE9
:1032C0000E943D11CE0187559F4F0E94BB0881117E
:1032D00058C0CF53DF4F88819981C15CD0400E9494
:1032E000BB0881114EC088E1C154DF4F68817981EC
:1032F000CF5BD040869F8001879F100D1124080D61
:10330000191DA3968EAD9FADA397D80111969C93DE
:103310008E93A5968EAD9FADA59713969C938E9395
:103320001297A7968EAD9FADA79715969C938E93F7
:103330001497BE0167557F4FC80106960E944F1231
:10334000CF53DF4F68817981C15CD040C8010C96B2
:103350000E944F12C953DF4F68817981C75CD0400A
:10336000C80142960E944F12C154DF4FE881F98193
:10337000CF5BD0403196C154DF4FF983E883CF5BF8
:10338000D04062EC71E090E080E00E94562D6C012C
:10339000CE018F599F4F0E944511CE0187559F4FF7
:1033A0000E943D11C554DF4F28813981CB5BD0404D
:1033B0002D5F3F4FC554DF4F39832883CB5BD0400F
:1033C000DCCCB5010B2C000C880B990B0E94F02F64
:1033D0002FE632E143E05BE30E942B302B013C01FE
:1033E000B6010D2C000C880B990B0E94F02F9B014D
:1033F000AC01C301B2010E942B302B013C0167E3F9
:1034000073E0E5CEB5010B2C000C880B990B0E94E4
:10341000F02F2FE632E143E05BE30E942B302B01DB
:103420003C01B6010D2C000C880B990B0E94F02F6B
:103430009B01AC01C301B2010E942B302B013C0166
:1034400063E373E0C4CEB6016F57710917FD04C082
:103450006FE770E06C197D09072E000C880B990B43
:103460000E94F02F2AE037ED43E25CE30E942B300C
:103470002B013C01B5010B2C000C880B990B0E9411
:10348000F02FA30192010E942B302B013C016EE230
:1034900073E09DCEC601845691098A9DB0018B9D33
:1034A000700D9A9D700D1124072E000C880B990B3E
:1034B0000E94F02F2DEC3CEC4CEC5DE30E942B3095
:1034C0002B013C016CE273E082CEB5010B2C000CA9
:1034D000880B990B0E94F02F2FE632E143E85AE364
:1034E0000E942B302B013C01B6010D2C000C880BE7
:1034F000990B0E94F02F9B01AC01C301B2010E9405
:103500002B302B013C016AE273E061CEB5010B2C3C
:10351000000C880B990B0E94F02F2AE037ED43E254
:103520005CE30E942B302B013C01B6010D2C000CFA
:10353000880B990B0E94F02F9B01AC01C301B201D3
:103540000E942B302B013C0165E273E040CEB501B7
:103550000B2C000C880B990B0E94F02F2DEC3CECEF
:103560004CEC5DE30E942B302B013C01B6010D2C8D
:10357000000C880B990B0E94F02F9B01AC01C3013A
:10358000B2010E942B302B013C0163E273E01FCE9D
:10359000B6016F577109072E000C880B990B0E941A
:1035A000F02F2AE037ED43EA5CE30E942B302B0139
:1035B0003C01B5010B2C000C880B990B0E94F02FDD
:1035C0009B01AC01C301B2010E942B302B013C01D5
:1035D0006FE173E0FCCD6AE173E0112311F065E166
:1035E00073E0CE018D559F4F0E94D2113DC3B501AE
:1035F0000B2C000C880B990B0E94F02F27E137EB66
:1036000041ED58E30E942B302B013C01B60160587C
:103610007109072E000C880B990B0E94F02F9B015B
:10362000AC01C301B2010E942B3020E030E040E841
:103630005FE30E9430312B013C0163E173E0C7CDB1
:10364000B5010B2C000C880B990B0E94F02F2FE674
:1036500032E143E85AE30E942B302B013C01B601D2
:103660000D2C000C880B990B0E94F02F9B01AC01D4
:10367000C301B2010E942B302B013C016FE073E0CB
:10368000A6CDB6016F577109072E000C880B990B58
:103690000E94F02F2FE632E143E85AE30E942B30DC
:1036A0002B013C01B5010B2C000C880B990B0E94DF
:1036B000F02F9B01AC01C301B2010E942B302B0102
:1036C0003C016CE073E083CDB5010B2C000C880B42
:1036D000990B0E94F02F2AE037ED43EA5BE30E944A
:1036E0002B302B013C01B6010D2C000C880B990BE3
:1036F0000E94F02F9B01AC01C301B2010E942B304C
:103700002B013C0168E073E062CDB5010B2C000C8D
:10371000880B990B0E94F02F2AE037ED43E25CE31F
:103720000E942B302B013C01B6010D2C000C880BA4
:10373000990B0E94F02F9B01AC01C301B2010E94C2
:103740002B302B013C0165E073E041CDB5010B2C22
:10375000000C880B990B0E94F02F2AE037ED43E212
:103760005DE30E942B302B013C01B6010D2C000CB7
:10377000880B990B0E94F02F9B01AC01C301B20191
:103780000E942B302B013C0160E073E020CD019FB3
:10379000B0011124072E000C880B990B0E94F02F0A
:1037A0002AE037ED43E25CE30E942B302B013C0121
:1037B0006EEF72E00CCDC601805891098A9DB00170
:1037C0008B9D700D9A9D700D112477FF02C061587A
:1037D0007F4F660F672F661F770B072E000C880B35
:1037E000990B0E94F02F2B013C016CEF72E0EFCCA3
:1037F000B5010B2C000C880B990B0E94F02F2FE6C3
:1038000032E143E85AE30E942B302B013C01B60120
:103810000D2C000C880B990B0E94F02F9B01AC0122
:10382000C301B2010E942B302B013C016AEF72E010
:10383000CECCB5010B2C000C880B990B0E94F02FFD
:103840002FE632E143E85AE30E942B302B013C0182
:10385000B6010D2C000C880B990B0E94F02F9B01D8
:10386000AC01C301B2010E942B302B013C0167EF78
:1038700072E0ADCC65EF72E0CE0183569F4FB4CEBF
:10388000B5010B2C000C880B990B0E94F02F2FE632
:1038900032E143E85AE30E942B302B013C01B60190
:1038A0000D2C000C880B990B0E94F02F9B01AC0192
:1038B000C301B2010E942B302B013C0163EF72E087
:1038C00086CCB6010D2C000C880B990B0E94F02FB2
:1038D00024E533EE45EB5FE30E942B302B013C01E6
:1038E00061E0063B08F460E070E090E080E00E9458
:1038F000F02F9B01AC01C301B2010E9430312B01BA
:103900003C016FEE72E063CCB6016A197B09072EA9
:10391000000C880B990B0E94F02F2B013C016DEEDF
:1039200072E055CCB60160587109113820F460E896
:1039300070E06C197D09072E000C880B990B0E9412
:10394000F02F2AE037ED43E25CE30E942B302B019D
:103950003C01B5010B2C000C880B990B0E94F02F39
:10396000A30192010E942B302B013C0169EE72E011
:103970002ECCB6016A197B09072E000C880B990B17
:103980000E94F02F2B013C0167EE72E020CC812FCA
:103990006CE00E940E32809FB0011124072E000CB3
:1039A000880B990B0E94F02F2B013C016FED72E008
:1039B0000ECC69ED72E060CFF4E61F9FC0011124C8
:1039C000B5010E941A32072E000C880B990B0E9439
:1039D000F02F2B013C0167ED72E0F9CBB601605886
:1039E0007109072E000C880B990B0E94F02F2AE01A
:1039F00037ED43E25CE30E942B302B013C01B50123
:103A00000B2C000C880B990B0E94F02F9B01AC0132
:103A1000C301B2010E942B302B013C0164ED72E026
:103A2000D6CBB5010B2C000C880B990B0E94F02F04
:103A30002AE037ED43E25CE30E942B302B013C018E
:103A4000B6010D2C000C880B990B0E94F02F9B01E6
:103A5000AC01C301B2010E942B302B013C0160ED8F
:103A600072E0B5CB202F30E0A0E0BAE00E94203118
:103A70002B013C01212F30E0AAE0B0E00E94203170
:103A8000640D751D861D971D0E94EE2F2B013C01B4
:103A90006DEC72E09CCB612F70E090E080E00E94C2
:103AA000EE2F2B013C0198CBB60160587109072E0F
:103AB000000C880B990B0E94F02F2FE632E143E8AF
:103AC0005AE30E942B302B013C01B5010B2C000C5A
:103AD000880B990B0E94F02F9B01AC01C301B2012E
:103AE0000E942B302B013C0165EC72E070CB60EC46
:103AF00072E0C2CEB6010D2C000C880B990B0E940F
:103B0000F02F2DEC3CEC4CEC5DE30E942B302B01B4
:103B10003C01B5010B2C000C880B990B0E94F02F77
:103B200020E030E04CEC51E40E942B309B01AC01D2
:103B3000C301B2010E94303120E030E048EC53E490
:103B40000E942F312B013C016EEB72E040CBB6019D
:103B50002FEF029F600D711D1124072E000C880BA2
:103B6000990B0E94F02F2B013C016BEB72E02FCBE5
:103B7000B6010D2C000C880B990B0E94F02F2DEC38
:103B80003CEC4CEC5DE30E942B302B013C01B50179
:103B90000B2C000C880B990B0E94F02F20E030E0DA
:103BA0004CEC51E40E942B309B01AC01C301B201EB
:103BB0000E94303120E030E048EC53E40E942F3185
:103BC0002B013C0168EB72E002CBB6010D2C000C1E
:103BD000880B990B0E94F02F2DEC3CEC4CEC5DE334
:103BE0000E942B302B013C01B5010B2C000C880BE3
:103BF000990B0E94F02F20E030E04CEC51E40E9441
:103C00002B309B01AC01C301B2010E9430312B016A
:103C10003C0166EB72E0DBCA1F921F931F920F9369
:103C200084EC91E09F938F933F922F920E945134A6
:103C3000B101CE018F569F4F0E946F12BE016F5689
:103C40007F4FCE018D559F4F0E94F210CE018F56AF
:103C50009F4F0E943D114DB75EB7485F5F4F0FB653
:103C6000F8945EBF0FBE4DBF412C512C3201B4CA37
:103C7000B5010B2C000C880B990B0E94F02F2DEC3A
:103C80003CEC4CEC5DE30E942B302B013C01B60177
:103C90000D2C000C880B990B0E94F02F9B01AC019E
:103CA000C301B2010E942B3020E030E048EC52E426
:103CB0000E949C312B013C0164EB72E088CA019F99
:103CC000B001112460587C40072E000C880B990B22
:103CD0000E94F02F2CE732EF40E35BE30E942B3091
:103CE0002B013C016CEA72E072CAC601805891094E
:103CF0008A9DB0018B9D700D9A9D700D1124072E29
:103D0000000C880B990B0E94F02F2B013C0169EAF3
:103D100072E05DCAB6015FEF059F600D711D112451
:103D2000072E000C880B990B0E94F02F2B013C01F1
:103D300067EA72E04CCA16951695109FB0011124DF
:103D4000072E000C880B990B0E94F02F2DEC3CECF9
:103D50004CEC5DE30E942B302B013C0162EA72E0E7
:103D600036CAB60160587109072E000C880B990BF2
:103D70000E94F02F2B013C01B5010B2C000C880B8D
:103D8000990B0E94F02F2AE037ED43E25CE30E949A
:103D90002B309B01AC01C301B2010E949C312B016D
:103DA0003C016DE972E013CA68E972E065CDB501C6
:103DB0000B2C000C880B990B0E94F02F2B013C015F
:103DC000B6010D2C000C880B990B0E94F02F2AE0F5
:103DD00037ED43EA5CE30E942B30A30192010E947D
:103DE0002B30A30192010E942F312B013C0165E988
:103DF00072E0EDC9B60160587109072E000C880BFE
:103E0000990B0E94F02F26EA3AE046EB5FE30E940E
:103E10002B302B013C01B5010B2C000C880B990BAE
:103E20000E94F02F26EA3BE944EC5BE30E942B3032
:103E30009B01AC01C301B2010E9430312B013C0156
:103E400061E972E0C4C97A2D66276C0D7D1D072ECD
:103E5000000C880B990B0E94F02F2B013C016BE8A2
:103E600072E0B5C9019FC001112468EC70E00E94A6
:103E70001A32072E000C880B990B0E94F02F2B0191
:103E80003C0169E872E0A3C97A2D66276C0D7D1D9F
:103E9000072E000C880B990B0E94F02F2B013C0180
:103EA00065E872E094C97A2D66276C0D7D1D072E9A
:103EB000000C880B990B01960E94F02F2B013C01FE
:103EC00061E872E084C96DE772E0D6CC7A2D66278E
:103ED0006C0D7D1D072E000C880B990B0E94F02F96
:103EE0002AE037ED43E25CE30E942B302B013C01DA
:103EF00069E772E06CC9B5010B2C000C880B990BBB
:103F00000E94F02F2FE632E143E85EE30E942B305F
:103F10002B013C01B6010D2C000C880B990B0E9463
:103F2000F02F9B01AC01C301B2010E942B302B0189
:103F30003C0167E772E04BC9B5016C0D7D1D072E92
:103F4000000C880B990B0E94F02F2B013C0163E7BA
:103F500072E03DC9B5010B2C000C880B990B0E9437
:103F6000F02F2AE037ED43E25CE30E942B302B0177
:103F70003C01B6016F577109072E000C880B990B95
:103F80000E94F02F9B01AC01C301B2010E942B30B3
:103F90002B013C0160E772E01AC9019FB0011124B6
:103FA000072E000C880B990B0E94F02F2CE53FE8A0
:103FB0004FEF53E40E949C312B013C016EE672E00E
:103FC00006C980E892E0A89EB001A99E700DB89E37
:103FD000700D1124072E000C880B990B0E94F02FF6
:103FE0002B013C01B6010D2C000C880B990B0E9493
:103FF000F02F20E030E040E250E40E942B309B01A3
:10400000AC01C301B2010E9430312B013C016AE6D0
:1040100072E0DDC87A2D66276C0D7D1D072E000C21
:10402000880B990B0E94F02F24E13EEA4BEE50E4FE
:104030000E949C312B013C0164E672E0C8C87A2DD5
:1040400066276C0D7D1D072E000C880B990B0E94B6
:10405000F02F24ED3AE946EA5EE30E942B302B0173
:104060003C0160E672E0B3C87A2D66276C0D7D1DB9
:10407000072E000C880B990B0E94F02F26EA3BE9D3
:1040800044E45EE30E942B302B013C016AE572E0C0
:104090009EC81F921F931F920F93ACECB1E0BF9389
:1040A000AF933F922F920E9451342DB73EB7285FB5
:1040B0003F4F0FB6F8943EBF0FBE2DBFD5CDCE01FA
:1040C00081559F4F0E943D110C941415E091F4020C
:1040D000F0E0EE0FFF1FEC5FFE4F80819181239691
:1040E0001FAE1EAE239725961FAE1EAE25972796B0
:1040F0001FAE1EAE27974AE0B7010E94822DB7017E
:10410000CE018F5B9F4F0E94181268EF71E0C701CC
:104110000E946F12BE016F5B7F4FC7010E94BF11EB
:10412000BC01CE018F599F4F0E946612BE016F598C
:104130007F4F88E090E00E94A110CE018F599F4FE1
:104140000E943D11C7010E943D11CE018F5B9F4F20
:104150000E943D11B4016A5F7F4FC7010E94661241
:10416000B70180E190E00E94A110C7010E943D11BB
:104170006EE873E0C7010E946612B70188E290E022
:104180000E94A110C7010E943D1165E070E080E02F
:1041900090E00E94D20B68E873E0C7010E946612AB
:1041A000B70180E390E00E94A110C7010E943D1179
:1041B00065E070E080E090E00E94D20B62E873E07E
:1041C000C7010E946612B70188E390E00E94A11027
:1041D000C7010E943D1165E070E080E090E00E9420
:1041E000D20B6CE773E0C7010E946612B70180E44E
:1041F00090E00E94A110C7010C948D1568ED71E04C
:104200008EE893E00E9418120C94B71568ED71E0E7
:1042100088E893E00E9418120C94D91568ED71E0BB
:1042200082E893E00E9418120C94FB1568ED71E08F
:104230008CE793E00E9418120C941D16809198034D
:1042400090919903029738F180918C0390918D039E
:10425000029708F180918603909187030297D8F026
:1042600080918003909181030297A8F080917A0356
:1042700090917B03029778F080917403909175037D
:10428000029748F08091F102811105C081E080938E
:10429000F1020E94E10F8091980390919903029797
:1042A00010F180918C0390918D030297E0F0809142
:1042B0008603909187030297B0F0809180039091DC
:1042C0008103029780F080917A0390917B0302979B
:1042D00050F08091740390917503029720F08091C3
:1042E000F10281115CC06BED71E0CE0101960E947C
:1042F0006F12BE016F5F7F4F80E390E00E94A110BC
:10430000CE0101960E943D1165E070E080E090E0F2
:104310000E94D20B69EE71E0CE0101960E946F12ED
:10432000BE016F5F7F4F88E390E00E94A110CE0135
:1043300001960E943D1165E070E080E090E00E94EF
:10434000D20BD0902C016D2D6150770B8B01613019
:10435000710509F4B5C06230710509F4FBC0672B23
:1043600011F00C942616D394D0922C0186E0809301
:10437000F402C954DF4F7881C75BD0407093340298
:104380007401A0E6EA0EF11CE814F90409F450C126
:10439000B8E1EB1AF108C7010E944511F5CF6FEFA4
:1043A00071E0C7010E946F12B70188E090E00E949F
:1043B000A110C7010E943D1165E070E080E090E02F
:1043C0000E94D20B6CE072E0C7010E946F12B7012D
:1043D00080E190E00E94A110C7010E943D1165E0BC
:1043E00070E080E090E00E94D20B64E973E0C701C6
:1043F0000E946612B70180E290E00E94A110C701FE
:104400000E943D1165E070E080E090E00E94D20BD8
:1044100068E873E0C7010E946612B70180E390E08C
:104420000E94A110C7010E943D1165E070E080E08C
:1044300090E00E94D20B62E873E0C7010E9466120E
:10444000B70188E390E00E94A110C7010E943D11CE
:1044500065E070E080E090E00E94D20B6CE773E0D2
:10446000C7010E946612B70180E490E00E94A1108B
:10447000C7010E943D1165E070E080E090E00E947D
:10448000D20B66E773E0C7010E946612B70188E4A9
:1044900090E00E94A110C7010E943D1165E070E00C
:1044A00080E090E00E94D20B60E773E0C7010E94B9
:1044B0006612B70180E590E00E94A110C70139CFD4
:1044C00068E172E0CE0101960E946F12B401645C53
:1044D0007F4FCE0101960E94BF1169ED71E00E94ED
:1044E000A911B4016E5B7F4F0E94BF11BC0184E92A
:1044F00093E00E944F12CE0101960E943D11B4013B
:104500006C5A7F4FCE0101960E94661269ED71E0F0
:10451000CE0101960E94A911B401665A7F4F0E94F4
:10452000BF11BC0188E893E00E944F12CE010196B2
:104530000E943D11D394D0922C018AE08093F40222
:10454000C954DF4F8881C75BD0408093340210E0AC
:1045500000E016CFB401645F7F4FC7010E9466126E
:1045600069ED71E0C7010E94A911B4016E5E7F4F31
:104570000E94BF11BC0182E893E00E944F12C70164
:104580000E943D11B4016C5D7F4FC7010E9466120D
:1045900069ED71E0C7010E94A911B401665D7F4F0A
:1045A0000E94BF11BC018CE793E00E944F12C7012B
:1045B0000E943D11B401645C7F4FC7010E946612E6
:1045C00069ED71E0C7010E94A911B4016E5B7F4FD4
:1045D0000E94BF11BC0186E793E00E944F12C70101
:1045E0000E943D11B4016C5A7F4FC7010E946612B0
:1045F00069ED71E0C7010E94A911B401665A7F4FAD
:104600000E94BF11BC0180E793E00E944F12C701D6
:104610000E943D1182E080932C0186E08093F40299
:10462000C954DF4F9881C75BD040909334028FCF3D
:104630000130110561F4CD53DF4FE881F981C35C8E
:10464000D0400FB6F894FEBF0FBEEDBF56C0CD539D
:10465000DF4F28813981C35CD0400FB6F8943EBF4C
:104660000FBE2DBF4AC02091F502211103C021E0E9
:104670002093F50291110C942213833011F00C94C5
:104680002D138091F402833110F40C9428131092AE
:10469000F4026BEA71E08AE993E00E9418126BEA77
:1046A00071E084E993E00E9418126BEA71E08EE8F1
:1046B00093E00E9418126BEA71E088E893E00E9490
:1046C00018126BEA71E082E893E00E9418126BEA1C
:1046D00071E08CE793E00E9418126BEA71E086E7C4
:1046E00093E00E9418126BEA71E080E793E00E9469
:1046F00018121092F1020E94E10FC353DF4F48815C
:104700005981CD5CD0400FB6F8945EBF0FBE4DBF4F
:10471000C253DF4F0FB6F894DEBF0FBECDBFDF919F
:10472000CF911F910F91FF90EF90DF90CF90BF90AE
:10473000AF909F908F907F906F905F904F903F9041
:104740002F9008958823C9F28091F2028111D4C07C
:104750000091D9031091DA0361E08091D8030E949F
:104760004E0B60E08091D8030E94D10A60E08091F6
:10477000D8030E94D10A60E08091D8030E944E0BBA
:1047800061E08091D6030E944E0B61E08091D603D8
:104790000E94D10A61E08091D7030E944E0B61E034
:1047A0008091D7030E94D10A80EF0E949E0B68EC93
:1047B00070E080E090E00E94D20B83EC0E949E0BA0
:1047C00068EC70E080E090E00E94D20B80EF0E94E5
:1047D0009E0B68EC70E080E090E00E94D20B83ECCE
:1047E0000E949E0B68EC70E080E090E00E94D20B8B
:1047F00065E070E080E090E00E94D20B0E94E10F43
:1048000065E070E080E090E00E94D20B6CE871E01F
:10481000CE0101960E946F12BE016F5F7F4F88E14B
:1048200090E00E94A110CE0101960E943D1165E02A
:1048300070E080E090E00E94D20BB801CE010196BA
:104840000E946612BE016F5F7F4F80E290E00E947F
:10485000A110CE0101960E943D1165E070E080E05C
:1048600090E00E94D20B63E0CE018F599F4F0E94CF
:10487000221260912D01CE018F5B9F4F0E94221268
:104880006BE971E0CE0101960E946F12BE016F5B71
:104890007F4FCE0101960E94BF1164EA71E00E9431
:1048A000A911BE016F597F4F0E94BF11BC01CE01FB
:1048B00087589F4F0E946612BE0167587F4F80E362
:1048C00090E00E94A110CE0187589F4F0E943D1199
:1048D000CE0101960E943D11CE018F5B9F4F0E9439
:1048E0003D11CE018F599F4F0E943D1165E070E050
:1048F00080E090E00E94D20BE091D903F091DA03BE
:10490000F680109276040091790410917A04D8010F
:104910005A961C921E92599758961C921E9257971F
:1049200056961C921E92559790E080E0FC01EE5442
:10493000FE4F4591559165917491403A58426105F9
:10494000710511F00C944B13FC01EA54FE4F2591B4
:104950003491F801348B238BFC01E854FE4F2591F0
:104960003491D80156963C932E935597FC01E6540A
:10497000FE4F25913491F801308F278BFC01E454D0
:10498000FE4F859194915A969C938E935997D80196
:1049900057968D919C915897892B09F454C01C9679
:1049A0008C9128EF280F243048F092EF980F943024
:1049B00028F096EE980F933008F040C09091680070
:1049C000243048F022EF280F243028F08A51F0E0FC
:1049D000E0E0833010F4E8E6F0E091609083F801C5
:1049E000948538EF390F343050F082EF890F8430DE
:1049F00030F086EE890FF0E0E0E0833010F4EBE673
:104A0000F0E02081343010F00C94561381E0692FCF
:104A10006450770BAB0101C0880F4A95EAF7822BEF
:104A2000343048F022EF290F243028F09A51F0E07A
:104A3000E0E0933010F4EBE6F0E08083F801818D44
:104A4000928D0E949F0E80917A0290917B020817AE
:104A5000190791F0D8015B968C915B978E7F5B96DE
:104A60008C938FB7F8941092780210927902109379
:104A70007B0200937A028FBF8E010F5F1F4FF801F8
:104A800050E040E080E0A1E0A02E512E6F2D70E0BC
:104A900081939A012F5F3F4F2A30310511F00C941A
:104AA0007013F12CE12CF80191918F018091740425
:104AB00061E0913009F060E00E94D10AFFEFEF1A47
:104AC000FF0A68EC70E080E090E00E94D20B2AE0E0
:104AD000E216F10441F78091790490917A04DC01A7
:104AE000ED91FC910680F781E02D099583E090E03F
:104AF000C356DF4F99838883CD59D040AE014356CA
:104B00005F4F63E070E0CE018F569F4F0E94160DFD
:104B10008823F1F0CF56DF4F8881C159D0408535C9
:104B200081F4CE56DF4F8881C259D040813049F49C
:104B3000CD56DF4F9881C359D0409A3811F40C9468
:104B4000831310927504809178048F5F80937804AA
:104B500080912D018F5F0C94C3131F920F920FB69B
:104B60000F9211248F939F938091E1009091E10027
:104B7000937F9093E10083FF0FC01092E90091E0D2
:104B80009093EB001092EC0092E39093ED00109262
:104B90000B0398E09093F00082FF22C093E0909383
:104BA000E9009091F200992319F09AE39093E800BC
:104BB0009091FC02992341F09091FC0291509093C6
:104BC000FC02911101C05D9A90910A03992341F072
:104BD00090910A03915090930A03911101C0289A71
:104BE00084FF18C08091E2008E7E81608093E20095
:104BF0008091E1008F7E8093E1008091FD028E7EA6
:104C000080618093FD029F918F910F900FBE0F9056
:104C10001F90189580FFF7CF8091E2008E7E806113
:104C20008093E2008091E1008E7E8093E10080918C
:104C3000FD028E7E8160E5CF1F920F920FB60F921C
:104C40001124CF92DF92EF92FF920F931F932F9335
:104C50003F934F935F936F937F938F939F93AF9304
:104C6000BF93EF93FF93CF93DF93CDB7DEB76C97EE
:104C7000DEBFCDBF1092E9008091E80083FF25C020
:104C800068E0CE0145960E94210A82EF8093E800F9
:104C90008D8987FF39C09091E80090FFFCCF982F55
:104CA000907609F034C19E894F89588D2F89F88CF0
:104CB000911131C0803861F58091FB028093F10041
:104CC0001092F1008EEF8093E8006C960FB6F89486
:104CD000DEBF0FBECDBFDF91CF91FF91EF91BF91AE
:104CE000AF919F918F917F916F915F914F913F9184
:104CF0002F911F910F91FF90EF90DF90CF900F9029
:104D00000FBE0F901F9018959EEF9093E800C7CFAD
:104D10001092F100D5CF913059F48111D3CF4130A9
:104D2000510581F68091FB028D7F8093FB02CACFF3
:104D3000933049F48111C6CF4130510519F6809165
:104D4000FB028260F2CF953041F48091E80080FF51
:104D5000FCCF20682093E300B5CF963009F0A9C0BE
:104D60000B8D1C8D22E01092E9001092F902109236
:104D7000F802F2122EC01092F7021092F6020E9470
:104D8000F0091F8299E09983FA8291E09E8390EA6C
:104D900098879AEF99872091F8023091F902275F5E
:104DA0003F4F3C832B838D831092E9001092F902D0
:104DB0001092F8021093F7020093F60249E050E0D7
:104DC000BE016F5F7F4F80E00E94CA090E94F00918
:104DD00079CF1093F7020093F6020E940709DC01D5
:104DE00012960D911C910115110509F451C1D801BC
:104DF000ED91FC910480F581E02DBE016B5E7F4F4B
:104E0000C8010995009709F03EC1F8010085118598
:104E1000EACFF3E0FF120EC08F89882309F440C067
:104E2000823061F440E860E182EB90E10E94352A33
:104E3000811148CF81E28093EB0047CF813029F484
:104E400040E86BE086EA90E1F1CF833099F70E9469
:104E50000709DC011296ED90FC908E010F5F1F4F49
:104E60006801E114F10479F0D701ED91FC9106801D
:104E7000F781E02DB801C7010995080F111DF70151
:104E8000E084F184EECFD8011C92F601019000205D
:104E9000E9F73197BF016C197D0940E0C601C6CF23
:104EA00060E970E1FB01449150E080E80E94CA098A
:104EB00009CF973009F4BECF983021F481E0809378
:104EC000F10000CF993009F0FDCE837009F0B2CF28
:104ED000E2E6F1E081E031E096E32191222371F0F6
:104EE0008093E9003093EB00DF0111972C91209320
:104EF000EC009093ED008F5F873079F78EE7809319
:104F0000EA001092EA008F8980930B03DBCE8B8D31
:104F10009C8D1092E9001092F9021092F802909381
:104F2000F7028093F602898D811192C08E899D8946
:104F3000913A49F4813209F07DCF47E050E062E3D5
:104F400071E080E0B3CF913209F074CF833269F41D
:104F50008F89988DB0E0A0E080932E0190932F016F
:104F6000A0933001B0933101ADCE803269F48091CD
:104F7000E80082FFFCCF67E082E391E00E94210A13
:104F80008BEF8093E8009ECE823209F09BCE8F8912
:104F900080933901EEEFFFE7859194918B3F9C4D13
:104FA00051F1E0E0F8E08091320190913301A0915D
:104FB0003401B0913501803B9440A105B105F1F475
:104FC0008091390180FD1AC0EE3F8AE0F80789F52B
:104FD00087E797E791838083809160008093FA024E
:104FE00088E19BE00FB6F894A895809360000FBE0F
:104FF0009093600067CEEEEFFAE0D5CF808191818B
:105000008737974709F05ECEA89580916000886148
:10501000809360008091FA0280936000EE3F2AE066
:10502000F20789F08091FE0A9091FF0A91838083B4
:1050300049CE808191818737980751F29093FF0A7A
:105040008093FE0AC5CF1092FF0A1092FE0A3ACE54
:105050000E940709DC0112960D911C9101151105A2
:1050600009F4E8CED801ED91FC910190F081E02D9A
:10507000BE016B5E7F4FC8010995811123CEF801F7
:1050800000851185EBCF181619060CF41BCED2CE75
:10509000F1E0FF12BECE64E970E104CF1F920F92DF
:1050A0000FB60F9211242F933F938F939F93AF933B
:1050B000BF938091E8029091E902A091EA02B09139
:1050C000EB023091E70223E0230F2D3758F50196CC
:1050D000A11DB11D2093E7028093E8029093E9029D
:1050E000A093EA02B093EB028091EC029091ED0262
:1050F000A091EE02B091EF020196A11DB11D809327
:10510000EC029093ED02A093EE02B093EF02BF91F8
:10511000AF919F918F913F912F910F900FBE0F9064
:105120001F90189526E8230F0296A11DB11DD2CF1E
:105130001F920F920FB60F9211242F933F934F930C
:105140005F936F937F938F939F93AF93BF93EF93EF
:10515000FF938091B900887F803609F44AC0F0F54A
:10516000883209F4A5C018F5803109F499C0B8F463
:10517000882309F4F5C0883009F492C0FF91EF91BB
:10518000BF91AF919F918F917F916F915F914F915F
:105190003F912F910F900FBE0F901F90189588315F
:1051A00009F486C0803251F78093C00214C0803465
:1051B00009F49BC040F48033B9F38833F9F6809347
:1051C000C00285ECAEC0803509F483C0883509F48F
:1051D00094C0883499F60E94D60DD0CF883909F44E
:1051E0008AC038F5883729F050F4883611F08037B6
:1051F00029F683E08093C1021092BF0255C088381F
:1052000009F479C0803919F0803809F0B7CF80915E
:10521000BF02803208F06FC0E091BF0281E08E0FC4
:105220008093BF028091BB00F0E0E156FD4F808388
:105230003BC0803B39F0D0F4803A09F477C0883A1B
:1052400009F09CCF84E08093C10210929E021092DC
:105250009D02F0E0E0E0099580919D0281110FC070
:1052600081E080939D0210927D0209C0803C09F488
:10527000A8CF883C09F4A5CF883B09F07FCFE09107
:105280009E0281E08E0F80939E02F0E0E358FD4F76
:1052900080818093BB0090919E0280919D0229C0E5
:1052A0008091E6028093BB0085EC8093BC0066CFC2
:1052B0009091E5028091E402981758F5E091E5029B
:1052C00081E08E0F8093E502F0E0EC53FD4F80818A
:1052D000E9CFE091E50281E08E0F8093E5028091B5
:1052E000BB00F0E0EC53FD4F80839091E50280918C
:1052F000E4029817C8F285E8D8CFE091E50281E092
:105300008E0F8093E5028091BB00F0E0EC53FD4FDF
:1053100080838091C30281115ECF81E08093C202BD
:1053200084EA8093BC001092C10228CF85EC809360
:10533000BC001092C1028091BF02803230F4E09133
:10534000BF02F0E0E156FD4F10826091BF0270E0B5
:105350008FE992E0F0E0E0E009951092BF020ECFF5
:105360001092C00238CF1F920F920FB60F921124E5
:10537000EF92FF920F931F932F933F934F935F935F
:105380006F937F938F939F93AF93BF93CF93DF934D
:10539000EF93FF93C0917A02D0917B02209749F05E
:1053A000EE85FF859D858B8D81FF1AC080818923C5
:1053B000D1F4FF91EF91DF91CF91BF91AF919F9188
:1053C0008F917F916F915F914F913F912F911F919D
:1053D0000F91FF90EF900F900FBE0F901F901895B8
:1053E0008081892331F78B899C890E949F0E88E0F8
:1053F000E82EF12C10E001E08D899E890E949F0E1D
:10540000EE85FF8580819D85892339F1102B000F62
:1054100081E0E81AF10881F78F89988D0E949F0E2C
:105420008B8D81FD1095809178022091790290E01A
:1054300001968F7399272817190699F0E091780241
:10544000F0E0E85CFD4F10838091780290E00196D7
:105450008F73992780937802ACCF802F8095182383
:10546000D6CF8B8D81608B8FA4CFEF92FF920F935D
:105470001F93CF93DF93F82E192FE62E042F81E090
:10548000860F880F0E949C0983E00E949C09CF2D03
:10549000D12FEC0EFD2EF11CCE15DF05B9F007FF64
:1054A00013C0FE0184910E949C09182F80E00E9485
:1054B0009C09812321968111EFCFDF91CF911F911C
:1054C0000F91FF90EF9008958881EDCF81E0F5CFA7
:1054D0000F931F93CF93DF93EC01162F072F8FEFBE
:1054E0009FEF99AB88AB9BAB8AAB9DAB8CAB1EAAF5
:1054F0001FAA18AE19AE1AAE1BAE1CAE1DAEFE0131
:10550000FE961082118212821382349610821182CA
:105510001282138234969183808332961082118294
:105520001282138260E0812F0E944E0B60E0812F77
:105530000E94D10A1883098382E090E09B838A83CA
:1055400084E190E09F838E8380E094E09D838C8350
:105550008CE490E0998788878DE392E09B878A8727
:10556000DF91CF911F910F910895CF92DF92EF922B
:10557000FF92CF93DF93109223031092220398EEB1
:10558000C92E93E0D92EE12CF12CC0922403D092A5
:105590002503E0922603F09227038CE691E0909396
:1055A0002103809320038FEF9FEF90932D0380932F
:1055B0002C031092750410927604109277041092C6
:1055C000780485E08093730484E08093740461E040
:1055D0000E944E0B61E084E00E94D10A8CE190E0D1
:1055E0000E944832EC011B821A82CC82DD82EE825C
:1055F000FF828EE791E0998388831C8A1B8A1E8A2A
:105600001D8A188E1F8A1A8E198E8B8D8E7F8D7F24
:105610008B8F61E084E00E944E0B61E084E00E9489
:10562000D10AE2E0F1E1E491E88BE3EEF0E1E4910C
:10563000F0E0EE0FFF1FEF52FF4E859194919A8B91
:10564000898B60E085E00E944E0B8B8D81FD04C04C
:1056500061E085E00E94D10A85E08C87E3E0F1E11A
:10566000E491ED87E4EEF0E1E491F0E0EE0FFF1F4E
:10567000ED53FF4E859194919F878E87D0937A0446
:10568000C093790465E170E087E294E00E94682AA3
:1056900064E170E08BED93E00E94682A6EE172E0B5
:1056A00080E591E00E946F1262E272E085E491E091
:1056B0000E946F126AE272E08AE391E00E946F1228
:1056C00080E591E09093DA038093D9038FE0809393
:1056D000D6038EE08093D70380E18093D8036BEAF2
:1056E00071E080ED93E00E946F126BEA71E08AEC4A
:1056F00093E00E946F126BEA71E084EC93E00E94E9
:105700006F126BEA71E08EEB93E00E946F126BEA0E
:1057100071E088EB93E00E946F126BEA71E082EB1C
:1057200093E00E946F126BEA71E08CEA93E00E94B2
:105730006F126BEA71E086EA93E00E946F126EE2EC
:1057400072E080EA93E00E946F126BEA71E08AE9EE
:1057500093E00E946F126BEA71E084E993E00E948B
:105760006F126BEA71E08EE893E00E946F126BEAB1
:1057700071E088E893E00E946F126BEA71E082E8C2
:1057800093E00E946F126BEA71E08CE793E00E9455
:105790006F126BEA71E086E793E00E946F126BEA8A
:1057A00071E080E793E0DF91CF91FF90EF90DF9081
:1057B000CF900C946F12789484B5826084BD84B5C8
:1057C000816084BD85B5826085BD85B5816085BDFC
:1057D00080916E00816080936E00109281008091B4
:1057E000810082608093810080918100816080933C
:1057F0008100809180008160809380008091910081
:1058000082608093910080919100816080939100EB
:10581000809190008160809390008091C1008460AD
:105820008093C1008091C10082608093C10080910B
:10583000C10081608093C1008091C300816080932A
:10584000C3008091C00082608093C0008091C2003C
:1058500081608093C20080917A00846080937A0096
:1058600080917A00826080937A0080917A008160D2
:1058700080937A0080917A00806880937A001092F9
:105880000B031092FB021092FD028091D700816001
:105890008093D70080EA8093D80089B5806189BD64
:1058A00089B5826089BD09B400FEFDCF61E070E07A
:1058B00080E090E00E94D20B8091D8008F7C8061C4
:1058C0008093D8008091E000807F8093E0008091F9
:1058D000E1008E7E8093E1008DE08093E200559A96
:1058E000209A1092F502C1E0C0932D011092F402AB
:1058F0001092F3021092F2021092F10210927504CB
:105900000E94B90FC093F0020E948A0CC0E0D0E060
:105910000E949A122097E1F30E940000F9CF80E7DD
:1059200093E00E943D1186E793E00E943D118CE7D1
:1059300093E00E943D1182E893E00E943D1188E8C7
:1059400093E00E943D118EE893E00E943D1184E9AE
:1059500093E00E943D118AE993E00E943D1180EAA4
:1059600093E00E943D1186EA93E00E943D118CEA8B
:1059700093E00E943D1182EB93E00E943D1188EB81
:1059800093E00E943D118EEB93E00E943D1184EC68
:1059900093E00E943D118AEC93E00E943D1180ED5E
:1059A00093E00E943D118AE391E00E943D1185E45D
:1059B00091E00E943D1180E591E00E943D11E0914F
:1059C0007904F0917A04309709F441C08EE791E0B0
:1059D00091838083948548EF490F443040F082EFF3
:1059E000890F843020F086EE890F833068F580912E
:1059F0006B00292F2450330B443078F027EF9E3072
:105A0000A1F02DEF9F3089F02BEF903171F02EEF48
:105A1000913159F0292F2651330BB90121E030E0A3
:105A200001C0220F6A95EAF720952823443048F0F8
:105A300082EF890F843028F09A51B0E0A0E09330D3
:105A400010F4ABE6B0E02C93CF010C94E43208954F
:105A5000EF920F931F93CF93DF93E80134E047FD5C
:105A600034E1042E000C550B57FF03C051954195AE
:105A70005109E32E022F242FAE010E94A72DCE0143
:105A8000DF91CF911F910F91EF900895FB01DC0101
:105A900005900D920020E1F70895FC01059000208B
:105AA000E9F7809590958E0F9F1F08954BE754E07E
:105AB0000E945B2D0895FA01A191B081009719F41D
:105AC0001097E1F0CD01DC01CD010D90002011F423
:105AD000C00113C0FB012191222319F02015D9F731
