:100000000C9418080C9440080C9440080C94992502
:100010000C943F260C941B260C9440080C9440082A
:100020000C9440080C9440080C9440080C94400830
:100030000C9440080C9440080C9440080C94400820
:100040000C9434240C9440080C9440080C94400800
:100050000C9440080C9440080C9440080C94400800
:100060000C947E240C94400800407A10F35A00A0AF
:10007000724E18090010A5D4E80000E87648170071
:1000800000E40B54020000CA9A3B000000E1F505B1
:10009000000080969800000040420F000000A086FB
:1000A00001000000102700000000E803000000002D
:1000B0006400000000000A000000000001000000D1
:1000C00000002C76D888DC674F0823DFC1DFAE59EB
:1000D000E1B1B796E5E3E453C63AE651997696E87E
:1000E000E6C28426EB898C9B62ED407C6FFCEFBC02
:1000F0009C9F40F2BAA56FA5F490055A2AF75C932D
:100100006B6CF9676DC11BFCE0E40D47FEF520E662
:10011000B500D0ED902E0300943577050080841E45
:10012000080000204E0A000000C80C333333330FA0
:10013000986E12831141EF8D2114893BE65516CF3D
:10014000FEE6DB18D1844B381BF77C1D901DA4BB49
:10015000E424203284725E228100C9F124ECA1E5FE
:100160003D2700C201000100110011000C0000E158
:1001700000000A002500250021000096000019005B
:10018000390039003600127A00001F004600460090
:1001900044008070000022004D004D004A00004BDA
:1001A00000003600750075007200403800004A00FB
:1001B0009C009C009900A02800006A00DA00DA0088
:1001C000D700802500007200EC00EC00E900C012AE
:1001D0000000E900DA01DA01D70160090000D70167
:1001E000B603B603B303B0040000B3036E076E0793
:1001F0006B07580200006E07DC0EDC0ED80E2C01D7
:100200000000DC0EC11DC11DBE1D6D2F735E3200CE
:10021000426172006465672F730044656700560091
:100220006D6D004F686D00530073656300672F7339
:100230000057534300575343007300636F756E7448
:1002400000672F73004E6D006D672F68006D62614F
:1002500072006D672F680020006D73004465672091
:100260006B2F7700200056004B770041680041005B
:100270006D672F6800446567206B2F77006B6D00FA
:100280006C2F68006B57002500C382C2B043004446
:100290006567206B2F770020004465670043006787
:1002A0002F7300410025006D7300560025006C007F
:1002B0006D626172006D7300626172006D6D004F5E
:1002C000686D0020005741524D00434F4C4400449C
:1002D00065670020006B6D2F680076006300415455
:1002E00044430044656700250072706D000054723D
:1002F000616E736D697373696F6E2C4272616B65A9
:1003000020456C656374726F6E6963732C496E73FC
:100310007472756D656E7420436C75737465722CA0
:1003200048656174696E672F41697200456E67693F
:100330006E652053706565642C456E67696E652037
:100340004C6F61642C456E67696E65204C6F61640B
:100350002C53746174757300456E67696E65205324
:10036000706565642C546F72717565207370656378
:1003700069666965642C456E67696E6520546F72A5
:100380007175652C5472616374696F6E20436F6E72
:1003900074726F6C00456E67696E65205370656599
:1003A000642C436861726765204C696D69742C57D1
:1003B000617374656761746520284E3735292C4256
:1003C0006F6F737420507265737375726500456E3C
:1003D00067696E652053706565642C4941542C57DC
:1003E000475445204E37352C426F6F737400456E6D
:1003F00067696E652053706565642C416363656C45
:100400002E20506564616C20506F732E2C546872DE
:100410006F74746C652056616C766520416E676CF4
:10042000652C426F6F7374205072657373757265BB
:1004300000456E67696E652053706565642C46756E
:10044000656C2054656D702E2C436F6F6C616E74FB
:100450002054656D702E2C496E74616B6520416966
:10046000722054656D702E00456E67696E6520536D
:10047000706565642C4C6F61642C426F6F737444BB
:1004800065732C426F6F737441637400456E6769C6
:100490006E65204C6F61642C456E67696E65204CFB
:1004A0006F61642C456E67696E65204C6F61642CCA
:1004B00057617374656761746520284E373529006C
:1004C000456E67696E652053706565642C456E677F
:1004D000696E65204C6F61642C5468726F74746C23
:1004E000652056616C766520416E676C652C4174A1
:1004F000686D6F737068657269630052504D205269
:10050000616E676520312C52504D2052616E6765D7
:1005100020322C52504D2052616E676520332C5290
:10052000504D2052616E6765203400456E67696EDC
:10053000652053706565642C436F6F6C616E742C1D
:10054000496E6A656374696F6E2054696D696E6780
:100550002C5468726F74746C652056616C766520DB
:10056000416E676C6500456E67696E652053706506
:1005700065642C4C616D62646120436F6E74726FB0
:100580006C2C526573756C7400456E67696E6520DE
:1005900053706565642C436F6F6C616E742C496E8B
:1005A00074616B65204169722C496E6A6563746978
:1005B0006F6E2054696D696E6700456E67696E6580
:1005C0002053706565642C456E67696E65204C6FBD
:1005D00061642C496E6A656374696F6E2054696D3D
:1005E000696E672C4D6173732041697220466C6F90
:1005F000770052656164696E657373204269747334
:100600002C436F6F6C616E742C54696D6520736937
:100610006E63652C4F42442D5374617475730045AD
:100620006E67696E652053706565642C436F6F6CEF
:10063000616E742C4C616D62646120436F6E7472E4
:100640006F6C2C4C616D62646120436F6E74726FCD
:100650006C00456E67696E652053706565642C4358
:10066000616D73686166742041646A7573746D2E80
:100670002C526573756C7400456E67696E65205306
:10068000706565642C456E67696E65204C6F6164AA
:100690002C43616D73686166742041646A7573747C
:1006A0006D2E2C43616D736861667400456E6769D9
:1006B0006E652053706565642C43616D7368616677
:1006C000742041646A7573746D2E2C43616D736878
:1006D0006166742041646A7573746D2E00526561A1
:1006E00064696E65737320426974732C4572726F0E
:1006F0007220466C61677320492C4572726F7220BC
:10070000466C6167732049492C4572726F722046AE
:100710006C6167732049490052656164696E657355
:100720007320426974732C4379636C6520466C6155
:10073000677320492C4379636C6520466C6167734D
:100740002049492C4379636C6520466C61677320AE
:1007500049490056656869636C65204964656E7433
:100760002E2C496D6D6F62696C697A657200456EF9
:1007700067696E652053706565642C4D61737320E5
:1007800041697220466C6F772C416972204D61730C
:10079000732066726F6D2C526573756C74004576AC
:1007A00061702E20456D697373696F6E732C4C6197
:1007B0006D62646120436F6E74726F6C2C5265734E
:1007C000756C740056656869636C65205370656567
:1007D000642C53776974636820506F736974696F10
:1007E0006E7320492C56656869636C65205370658B
:1007F00065642C53776974636820506F73697469FA
:100800006F6E73204949004C6F77657220416461B7
:1008100070746174696F6E2C4C6F776572204164DF
:100820006170746174696F6E2C456D657267656E79
:10083000637920416972204761702C456D6572674C
:10084000656E637920416972204761700054687257
:100850006F74746C652056616C76652C5468726F89
:1008600074746C652056616C76652C416363656CAD
:100870002E20506564616C20506F732E2C41636391
:10088000656C2E20506564616C20506F732E00459E
:100890006E67696E652053706565642C426174747F
:1008A00065727920566F6C746167652C5468726F3D
:1008B00074746C652056616C766520416E676C655A
:1008C0002C4F7065726174696E67005468726F7442
:1008D000746C652056616C76652C5468726F747404
:1008E0006C652056616C76652C5468726F74746CFC
:1008F000652041646170746174696F6E2C52657318
:10090000756C7400456E67696E652053706565642B
:100910002C456E67696E652053706565642C49646B
:100920006C6520526567756C61746F722C4F7065D1
:10093000726174696E6700456E67696E65205370F9
:100940006565642C49646C6520526567756C6174DB
:100950006F722C49646C652053746162696C697AAA
:100960006174696F6E2C4F7065726174696E670097
:10097000456E67696E652053706565642C4C6F61C8
:1009800064205374617475732C416363656C2E200D
:10099000506564616C20506F732E2C5468726F74B4
:1009A000746C652056616C766520416E676C6500DD
:1009B000456E67696E652053706565642C456E678A
:1009C000696E652053706565642C4261747465724C
:1009D0007920566F6C746167652C47656E6572612E
:1009E000746F7200456E67696E652053706565644B
:1009F0002C456E67696E652053706565642C536580
:100A00006C656374656420476561722C426174741F
:100A100065727920566F6C7461676500456E676911
:100A20006E652053706565642C456E67696E652040
:100A300053706565642C412F432052656164696E73
:100A40006573732C412F4320436F6D707265737310
:100A50006F7200456E67696E652053706565642C22
:100A6000436174616C7974696320436F6E7665725B
:100A700074657200456E67696E65205370656564C4
:100A80002C436174616C7974696320436F6E766581
:100A9000727465722C4C616D62646120566F6C7467
:100AA0006167652C526573756C7400526573697368
:100AB00074616E63652C48656174657220436F6E66
:100AC000646974696F6E2C526573697374616E63C7
:100AD000652C48656174657220436F6E6469746942
:100AE0006F6E00456E67696E65204C6F61642C53B4
:100AF000656E736F7220566F6C7461676500536525
:100B00006E736F7220566F6C746167652C526573DB
:100B1000756C7400456E67696E6520537065656419
:100B20002C436174616C7974696320436F6E7665E0
:100B3000727465722C44796E616D696320466163DD
:100B4000746F722C526573756C74004C616D6264C5
:100B50006120436F6E74726F6C2C53656E736F728D
:100B600020566F6C74616765005472696D73004C38
:100B7000616D62644465732C4C616D6264416374A1
:100B80000042616E6B20312C42616E6B203100455A
:100B90006E67696E652053706565642C456E676984
:100BA0006E65204C6F61642C436F6F6C616E742CAA
:100BB000526573756C7400566F6C746167652C5662
:100BC0006F6C746167652C566F6C746167652C5629
:100BD0006F6C7461676500456E67696E6520537060
:100BE0006565642C456E67696E65204C6F61642C89
:100BF00054696D696E6720526574617264617469CD
:100C00006F6E2C54696D696E6720526574617264F1
:100C10006174696F6E00456E67696E65205370651B
:100C200065642C456E67696E65204C6F61642C5459
:100C3000696D696E67205265746172646174696F71
:100C40006E2C54696D696E672052657461726461BF
:100C500074696F6E004B6E6F636B20312D342C4BBB
:100C60006E6F636B20312D342C4B6E6F636B2031B4
:100C70002D342C4B6E6F636B20312D34004C6F770D
:100C800065722C55707065722C4C6F7765722C559F
:100C900070706572004D69736669726520436F7587
:100CA0006E7465722C4D697366697265004D697367
:100CB00066697265312C4D697366697265322C4DB7
:100CC000697366697265332C4D6973666972653440
:100CD00000456E67696E652053706565642C456ECE
:100CE00067696E65204C6F61642C4D69736669722B
:100CF000652C4D69736669726500456E67696E653E
:100D00002053706565642C436F6F6C616E742C4961
:100D10006E74616B65204169722C49676E697469F4
:100D20006F6E00456E67696E652053706565642C53
:100D3000456E67696E65204C6F61642C5468726FF4
:100D400074746C652056616C766520416E676C65C5
:100D50002C49676E6974696F6E00456E67696E65D0
:100D60002053706565642C456E67696E65204C6F15
:100D700061642C496E74616B65204169722C416C11
:100D800074697475646500456E67696E652053709B
:100D90006565642C456E67696E65204C6F61642CD7
:100DA00056656869636C652053706565642C4C6F8B
:100DB00061642053746174757300456E67696E6574
:100DC0002053706565642C42617474657279205695
:100DD0006F6C746167652C436F6F6C616E742C4926
:100DE0006E74616B652041697200456E67696E655E
:100DF0002053706565642C4D41462C5468726F74A5
:100E0000746C652C49676E6974696F6E00456E6716
:100E1000696E652053706565642C4C6F61642C4964
:100E20006E6A2054696D652C4D414600456E6769B8
:100E30006E652053706565642C436F6F6C616E74D2
:100E40002C4C616D62646120436F6E74726F6C2C08
:100E500042617369632053657474696E670000535F
:100E600074656572696E672C4169726261672C5B9B
:100E70004E2F415D2C5B4E2F415D00456E67696EC4
:100E8000652C5472616E736D697373696F6E2C415A
:100E900042532C5B4E2F415D004F646F6D6574654E
:100EA000722C456E67696E652053706565642C4FC2
:100EB000696C2C436F6F6C616E7400496D6D6F626D
:100EC000696C697A65722C5B4E2F415D2C5B4E2FED
:100ED000415D2C5B4E2F415D00496E737472756DE0
:100EE000656E742C456E67696E6520636F6E7472F3
:100EF0006F6C2C456D657267656E63792C547261F9
:100F00006E73706F6E646572005661726961626CB7
:100F10006520636F64652C4B65792073746174750B
:100F2000732C466978656420636F64652C496D6D28
:100F30006F62696C697A6572005374617274696E6C
:100F4000672C456E67696E65202845434D292C4BFB
:100F5000657920636F6E646974696F6E2C4E756D70
:100F6000626572206F6600436F6F6C616E7420540F
:100F7000656D702C4F696C206C6576656C2C4F69C3
:100F80006C2C5B4E2F415D004F646F6D6574657214
:100F90002C4675656C206C766C2C4675656C5365BB
:100FA0006E642C54416D6269656E740053706565A2
:100FB000642C456E67696E652053706565642C4FBF
:100FC000696C2070726573737572652C54696D65F8
:100FD0000000000000240027002A00000000080094
:100FE00002010000030407000000000000000000F0
:100FF0000000002300260029000000000025002832
:10100000002B00040404040404040402020202028B
:1010100002030303030303010204081020408001BC
:10102000020408102001020408102000B026152830
:1010300011241FBECFEFD8E0DEBFCDBF25E0AAE26E
:10104000B3E001C01D92A131B207E1F713E0A0E0C7
:10105000B1E0E6EEF4E602C005900D92AA32B107C7
:10106000D9F718E0C7E1D8E004C02197FE010E943B
:10107000A22DC631D107C9F70E94B4270C9466325D
:101080000C940000DC0114962D913C911597232BB4
:1010900041F0ED91FC9181E09081992319F080E07D
:1010A000089581E008958091EC0321E030E0909173
:1010B000ED039217130644F0F901E451FC4F9081BF
:1010C00089272F5F3F4FF3CF815008950895AF9246
:1010D000BF92CF92DF92EF92FF920F931F93CF9325
:1010E000DF936C017B018B01040F151FEB015E0187
:1010F000AE18BF08C017D10759F06991D601ED911C
:10110000FC910190F081E02DC6010995892B79F7BA
:10111000C501DF91CF911F910F91FF90EF90DF906C
:10112000CF90BF90AF900895833081F028F4813044
:1011300099F08230A9F008958730A9F08830C9F07D
:101140008430B1F4809180008F7D03C08091800055
:101150008F7780938000089584B58F7784BD08953C
:1011600084B58F7DFBCF8091B0008F778093B000E6
:1011700008958091B0008F7DF9CFCF93DF93282F12
:1011800030E0F901E552F04F8491F901E95EFF4E3C
:10119000D491F901ED5FFF4EC491CC23A1F08111F0
:1011A0000E949408EC2FF0E0EE0FFF1FE151F04F8A
:1011B000A591B491EC91ED2381E090E009F480E0F9
:1011C000DF91CF91089580E090E0FACF1F93CF9305
:1011D000DF93282F30E0F901E552F04F8491F901B7
:1011E000E95EFF4ED491F901ED5FFF4EC491CC232F
:1011F000A9F0162F81110E949408EC2FF0E0EE0F59
:10120000FF1FE750F04FA591B4918FB7F894EC9180
:10121000111108C0D095DE23DC938FBFDF91CF91F1
:101220001F910895DE2BF8CF60E0809167040C9445
:10123000E608AF92BF92CF92DF92EF92FF920F93A8
:101240001F93CF93DF930FEF10E0081B190BC7E03C
:10125000D0E0AA24A394B12C9BE0C92ED12C2BE181
:10126000E22EF12C60E0809166040E94E608C50140
:101270000C2E02C0880F991F0A94E2F78023912355
:1012800018161906ECF461E0809167040E94E608E4
:10129000C6010197F1F761E0809166040E94E608BB
:1012A000C7010197F1F72197E8F6DF91CF911F91E0
:1012B0000F91FF90EF90DF90CF90BF90AF90089587
:1012C0000E941409E5CFCF93DF9390E0FC01E95E23
:1012D000FF4E24918D5F9F4EFC0184918823D1F0B5
:1012E00090E0880F991FFC01EF52F04FA591B49147
:1012F000FC01E750F04FC591D49161110EC09FB72A
:10130000F8948C91E22FE0958E238C932881E22330
:10131000E8839FBFDF91CF9108958FB7F894EC9148
:10132000E22BEC938FBFF6CFCF93DF93C6E6D4E0EA
:1013300061E08A810E94630961E08A810E94E60877
:101340008FE990E00197F1F760E08A810E94E6085A
:1013500060E08A810E9463098FE890E00197F1F7CD
:10136000DF91CF910895CF93C82F0E9494098C2FBD
:1013700090E00E94190983E790E00197F1F7CF917F
:101380000C9414093FB7F8948091E2039091E30321
:10139000A091E403B091E50326B5A89B05C02F3FBB
:1013A00019F00196A11DB11D3FBFBA2FA92F982F8B
:1013B0008827BC01CD01620F711D811D911D42E086
:1013C000660F771F881F991F4A95D1F708958F924E
:1013D0009F92AF92BF92CF92DF92EF92FF926B01FA
:1013E0007C010E94C2094B015C01C114D104E104DB
:1013F000F104B9F00E94C209681979098A099B09A8
:10140000683E73408105910580F321E0C21AD1083E
:10141000E108F10888EE880E83E0981EA11CB11C3B
:10142000E4CFFF90EF90DF90CF90BF90AF909F9070
:101430008F900895CF93DF93C6E6D4E061E08A8170
:101440000E94630960E08A810E94E60860E08A8168
:101450000E94E60860E08A810E94630961E0888159
:101460000E94630961E088810E94E60861E0898149
:101470000E94630961E089810E94E60880EF0E9472
:10148000B30968EC70E080E090E00E94E70983EC2B
:101490000E94B30968EC70E080E090E00E94E709E8
:1014A00080EF0E94B30968EC70E080E090E00E9459
:1014B000E70983EC0E94B30968EC70E080E090E0FB
:1014C000DF91CF910C94E7092FB7F8946091DE0378
:1014D0007091DF038091E0039091E1032FBF0895A5
:1014E000CF92DF92EF92FF920E94640A6B017C011F
:1014F00028EEC20E23E0D21EE11CF11C80910905EA
:1015000090910A05DC01ED91FC910084F185E02DBC
:101510000995892BA1F40E94640A6C157D058E053E
:101520009F0560F310920505809107058F5F8093FA
:10153000070580E0FF90EF90DF90CF9008958091B5
:10154000090590910A05DC01ED91FC910284F38577
:10155000E02D0995EFCFAF92BF92CF92DF92EF923D
:10156000FF921F93CF93DF937B016C01D0E0C0E02B
:101570005B0181E0A81AB108D6011D916D0180912F
:10158000090590910A05DC01ED91FC910190F08133
:10159000E02D612F0995CA15DB05BCF40E94700A85
:1015A0001095811791F010920505809108058F5FC5
:1015B0008093080580E0DF91CF911F91FF90EF901D
:1015C000DF90CF90BF90AF9008952196EC16FD0666
:1015D00099F6809106058F5F8093060581E0EBCF39
:1015E0005F926F927F928F929F92AF92BF92CF92B3
:1015F000DF92EF92FF920F931F93CF93DF93DA0165
:101600002D913C9121153105A9F0621773070CF05B
:101610006CC080E0DF91CF911F910F91FF90EF9010
:10162000DF90CF90BF90AF909F908F907F906F9002
:101630005F900895552453948A017B013C010E94D8
:10164000640A4B015C01B0ED8B0EB7E09B1EA11C40
:10165000B11CD0E0C0E06301CC0EDD1E8091090515
:1016600090910A05DC01ED91FC910084F185E02D5B
:101670000995892B09F465C00E94700A682FF6014C
:1016800081936F012196D8018D919C911197892B9F
:1016900009F03EC0C130D105D9F5862F90E0019602
:1016A0008D939C93E816F9060CF4B3CF511041C00A
:1016B000F80180819181C817D90761F480910905EB
:1016C00090910A056095DC01ED91FC910190F0810B
:1016D000E02D09950E94640A4B015C01F8EE8F0E23
:1016E000F3E09F1EA11CB11CB9CF512CA5CF2097B0
:1016F00009F4B1CFF801808191818C179D0709F021
:10170000AACF809106058F5F8093060581E082CF86
:10171000552071F2C230D10561F480910605681739
:1017200041F010920505809108058F5F80930805B0
:1017300070CFF80180819181C817D9070CF4BECF12
:10174000C9CF0E94640A681579058A059B0578F25D
:1017500010920505809107058F5F8093070559CF8B
:1017600085ED8093BC008091BC0084FDFCCF10927D
:10177000B703089520919303260F3327331F213297
:101780003105ECF42091B703FC0190E080E02430B7
:1017900069F082E00895A09193032191AC014D5826
:1017A0005C4FA40FB52FB11D2C930196861798F3AB
:1017B00080919303680F6093930380E0089581E024
:1017C000089508958FEF9FEF08958FEF9FEF08958D
:1017D0008091720390E09195819591090895CF933E
:1017E000DF93CB01EA01642F0E94BA0BCE01DF9197
:1017F000CF910895CF93DF931F92CDB7DEB7698362
:1018000061E0CE0101960E94BA0B81E090E00F905A
:10181000DF91CF910895DC015196ED91FC915297A3
:10182000908150968C918095892380830895209192
:101830007003309171032817390781F490916F0379
:1018400080916E03981751F0E0916F03F0E0E25D34
:10185000FC4F8081082E000C990B08958FEF9FEFAD
:10186000089520917003309171032817390739F4D6
:101870008FB7F89410926E0310926F038FBF089584
:1018800020917003309171032817390771F480910A
:101890006E0320916F0390E0805C9F4F821B910943
:1018A00060E470E00E948E2D089590E080E008953D
:1018B000209170033091710328173907B9F4909182
:1018C0006F0380916E03981789F0E0916F03F0E049
:1018D000E25DFC4F808120916F0330E02F5F3F4F2E
:1018E0002F73332720936F0390E008958FEF9FEFBE
:1018F000089520E001972FEF8F3F9207D9F70895C1
:1019000090E080E00895CF92DF92EF92FF920F93E4
:101910001F93CF93DF93EC018FEF9FEF9BAB8AABCD
:101920009DAB8CAB8EA99FA9A8ADB9AD8AAF9BAF7B
:10193000ACAFBDAF0E94640A6EAB7FAB88AF99AF0E
:1019400088818E3008F08E508770806480937C0090
:1019500080917A00806480937A0080917A0086FD7D
:10196000FCCF8091780020917900322F282F4A8176
:101970005B81FE01389690E080E0841795073CF487
:10198000619171912617370724F00196F6CF8FEFFA
:101990009FEF4EA95FA968AD79ADDE01AA5BBF4F8D
:1019A0002D913C911197FE01E85BFF4F28173907F5
:1019B00021F040835183628373838D939C930081D4
:1019C0001181228133816A017B01C01AD10AE20AA6
:1019D000F30A0E811F8130E020E00C151D052E0555
:1019E0003F0508F528A939A928173907E1F0DE01D4
:1019F000DE96CD90DD90ED90FC901397FE01EE5BAE
:101A0000FF4FC082D182E282F3828F3F980729F094
:101A10004D935D936D937C9313979BAB8AAB3DABDA
:101A20002CAB99AB88ABDF91CF911F910F91FF90B9
:101A3000EF90DF90CF900895AF92BF92CF92DF9258
:101A4000EF92FF920F931F93CF93DF930E9494091D
:101A50008091EC03082E000C990B0E94190961E09B
:101A6000809167040E94E608C091ED03CF5F0CE40B
:101A700010E03BE4E32EF12C809168040E94BD0845
:101A8000892B81F18DEEC82E83E0D82EEE24E394CD
:101A9000F12CD0E02BE9A22EB12CCE15DF054CF1B4
:101AA00081E0E816F10411F00E941409C5010197C4
:101AB000F1F7F60181916F01082E000C990B0E943D
:101AC00019090E9414090DED15E0809168040E9427
:101AD000BD08892B19F401501109B9F7FFEFEF1A6E
:101AE000FF0ADBCF0150110969F2C7010197F1F735
:101AF000C3CFDF91CF911F910F91FF90EF90DF90B7
:101B0000CF90BF90AF900C941409CF93DF93CCEE9D
:101B1000D3E083E5888386E0898380E88A831B821B
:101B20001C8281E08D838E830E9453088F83DF9116
:101B3000CF910C941C0DCF93DF93CCEED3E083E5D3
:101B4000888386E0898382E88A831B821C8280E402
:101B50008D8388E58E830E9453088F83DF91CF9118
:101B60000C941C0DDF92EF92FF920F931F93CF9373
:101B7000DF93EC01898D9A8D892B71F481E090E0DF
:101B80009B838A8390E080E0DF91CF911F910F913A
:101B9000FF90EF90DF900895162FDFB6F8948B8DAD
:101BA00081FD29C0CE010E940B0C898D9A8D05966E
:101BB0000E94790C8B8D98E0E92EF12C01E081FFD9
:101BC00028C0812F8023F1F0CE010E940B0C898D5B
:101BD0009A8D0E94790C000F81E0E81AF10889F7CC
:101BE000CE010E940B0CDFBE898D9A8D0E94790C6C
:101BF00081E090E0C9CFE989FA8980819889892BB1
:101C00008083D3CFE989FA8980819889892B808361
:101C1000DECF812F8023B1F0E989FA89808198890C
:101C2000892B8083898D9A8D0E94790C000F81E029
:101C3000E81AF10871F7E989FA8980819889892B76
:101C40008083D1CFCE010E940B0CECCF0F931F935A
:101C5000CF93DF93FC01048115810115110539F43F
:101C6000FB011082DF91CF911F910F910895415098
:101C700051094017510708F48A01EB01FC0160810A
:101C80007181A801CE010E94B62FC00FD11F18820A
:101C9000E9CFFF920F931F93CF93DF93F82E8B0121
:101CA000DB01CD91DC91209761F08991882349F087
:101CB000082E000C990B0E949E2FFE013197808305
:101CC000F4CF86E58093EC03F8014481558184E0EC
:101CD000840F8093ED0386E28093EE031092EF036E
:101CE000F092F0034F5F5F4F29F061EF73E0C8019E
:101CF0000E94260E0E945308D8011496ED91FC9183
:101D0000E451FC4F8583DF91CF911F910F91FF909C
:101D10000C941C0D5F926F927F928F929F92AF9264
:101D2000BF92CF92DF92EF92FF920F931F93CF93C8
:101D3000DF93CDB7DEB728970FB6F894DEBF0FBE9E
:101D4000CDBF182F4A01062F080F5E0189E0A80EAB
:101D5000B11C85E5782E9CE0692E21E8522EDE012B
:101D60001196AD01C401FC012191CF01FA0121932B
:101D7000AF01EA15FB05B9F77092EC036092ED0331
:101D80005092EE031092EF031093F00381EF93E073
:101D90002D91FC012193CF01A417B507C9F70E942B
:101DA00053088093F9030E941C0D0FB6F894DEBF10
:101DB0000FBECDBF65E070E080E090E00E94E709D3
:101DC0000FB6F894DEBF0FBECDBF1F5FF8E08F0ED9
:101DD000911C1013C4CF28960FB6F894DEBF0FBE27
:101DE000CDBFDF91CF911F910F91FF90EF90DF90CA
:101DF000CF90BF90AF909F908F907F906F905F90AB
:101E000008950F931F93CF93DF938C01EB01FC0197
:101E1000808191810097E1F0688179816115710578
:101E2000A9F0428153812C813D814217530770F004
:101E30000E94AF2F8C819D81F801958384831D8240
:101E40001C82DF91CF911F910F9108950E94582E0F
:101E500088819981F801918380838A819B81938312
:101E600082838C819D8195838483198218821B8251
:101E70001A82E5CFCF93DF93EC0188819981009797
:101E800011F00E94582E198218821D821C821B821A
:101E90001A82DF91CF910895FC0180819181009792
:101EA00011F00C94582E0895CF93DF93EC014296D5
:101EB0000E944C0FCE010C960E944C0FCE0106964C
:101EC000DF91CF910C944C0F0F931F93CF93DF931F
:101ED000EC0188819981009759F02A813B8126176E
:101EE000370730F081E0DF91CF911F910F91089576
:101EF0008B016F5F7F4F0E94E12E009759F099830D
:101F000088831B830A832C813D81232B59F7FC0195
:101F10001082E8CF80E0E7CFEF92FF920F931F93FC
:101F2000CF93DF936115710541F480E0DF91CF918C
:101F30001F910F91FF90EF90089541155105B1F059
:101F40007B01EC010C811D81040F151FB8010E945B
:101F5000640F882351F3288139818C819D81B701D9
:101F6000820F931F0E94AF2F1D830C8381E0DECF71
:101F7000CF93DF93EC01FB0101900020E9F731974B
:101F8000AF01461B570B0E948C0F811103C0CE017D
:101F90000E943A0FCE01DF91CF910895CF93DF9346
:101FA000EC01FB0144815581608171810E948C0F9D
:101FB000811103C0CE010E943A0FCE01DF91CF9173
:101FC0000895EF92FF920F931F93CF93DF93EC014D
:101FD0008B01CB010E94C1287C01BC01CE010E9473
:101FE000640F81110BC0CE010E943A0FCE01DF9128
:101FF000CF911F910F91FF90EF900895FD82EC8299
:10200000B801888199810E94BA28F0CFEF92FF929F
:102010000F931F93CF93DF93EC017B018A01BA01E9
:102020000E94640F81110BC0CE010E943A0FCE01B5
:10203000DF91CF911F910F91FF90EF9008951D8335
:102040000C83B701888199810E94AF2FF0CFFB01EB
:1020500001900020E9F73197AF01461B570B0C9414
:1020600006100F931F93CF93DF93CDB7DEB7299759
:102070000FB6F894DEBF0FBECDBF8C01862FF801DE
:102080001182108213821282158214824AE0BE01EC
:102090006F5F7F4F90E00E940129BE016F5F7F4F0D
:1020A000C8010E94271029960FB6F894DEBF0FBE14
:1020B000CDBFDF91CF911F910F910895CF93DF9303
:1020C000EC01FB018617970749F06081718161156A
:1020D000710541F0448155810E940610CE01DF91C7
:1020E000CF9108950E943A0FF9CFFC01118210821E
:1020F00013821282158214820C945E10FC011182EC
:10210000108213821282158214826115710551F0BA
:10211000FB0101900020E9F73197AF01461B570BF7
:102120000C9406100895CF93DF93EC0161EA72E0FE
:1021300006960E947E1061EA72E0CE010C960E9423
:102140007E1061EA72E0CE014296DF91CF910C944D
:102150007E102F923F924F925F926F927F928F925A
:102160009F92AF92BF92CF92DF92EF92FF920F9326
:102170001F93CF93DF93CDB7DEB7CE5CD1090FB6F7
:10218000F894DEBF0FBECDBF2DB73EB7C353DF4FB0
:1021900039832883CD5CD0400E94640AC954DF4F44
:1021A000688379838A839B83C75BD04087EB94E005
:1021B0000E94830C8BE694E00E94830C8091E704DC
:1021C0009091E8048E31910569F58091F504909124
:1021D000F604A091F704B091F8048053984FAF4FE4
:1021E000BF4F4091ED045091EE046091EF04709167
:1021F000F004481759076A077B07C0F014E01093F2
:102200002D0300912C031430F1F481E00827009392
:102210002C031092E8031092E70380933702109288
:10222000050541C011E08B37910549F380919B046E
:1022300090919C0412E08B37910509F313E04E97BF
:10224000F1F210E0DCCF8091E60381110C94322191
:102250001092EB03109205050E94850D1092E80381
:102260001092E70381E0D9CF8F5F8093EA030C944B
:102270003822123041F48091EA03811102C083E1D7
:10228000F4CF8150F2CFB0900505B110FFC080911E
:10229000EB0390913702943010F40C949122882330
:1022A00011F40C946C220E94850D0C946C220C96F7
:1022B000883A910511F00C943B23F801148A138A93
:1022C0000C946C2384E00C9486239E3048F42850B0
:1022D000310981E001C0880F2A95EAF70C94A52303
:1022E0002E503109F6CF8A2F2830310561F081E078
:1022F0002930310541F0CB0102C0959587954A956B
:10230000E2F78170A827A9010C94CF2380930505DB
:1023100061EA72E0CE0187589F4F0E947E108E01C5
:102320000F5B1F4F9CE9892E92E0992EC956DF4F13
:1023300019821882C759D040AE0149565F4F60E4F8
:1023400070E08A2D952D0E94F00A8823A9F0C956C5
:10235000DF4F28813981C759D040232B69F09B81F9
:10236000993009F491C0963FA9F01092050580912B
:1023700008058F5F80930805CE0187589F4F0E9404
:102380004C0F81E0BB2011F40C942F248093370272
:102390000C946C226A2D752DCE018F599F4F0E948F
:1023A0007E10C956DF4FC880D980C759D040B2E0EF
:1023B000CB1AD108B3E06B2E712CE3E0CE16D1041A
:1023C00020F0360183E0C82ED12C61EA72E0C8010A
:1023D0000E947E10A796EEACFFACA797CE14DF0448
:1023E00000F56E147F0408F47301A396EEADFFAD03
:1023F000A397EE0DFF1D70801082A3966EAD7FAD8A
:10240000A3976C0D7D1DC80161157105A1F10E9496
:102410002710A3968EAD9FADA397E80EF91ED701A6
:102420007C92F8014481558160817181CE01875889
:102430009F4F0E948C0FC8010E944C0F809106058F
:102440001F928F939F928F921F930F930E94C52F7D
:1024500064E070E0C8010E94AB0A0F900F900F90EB
:102460000F900F900F90811109C0CE018F599F4F8F
:102470000E944C0F81CF0E943A0FCBCFCE018F59D3
:102480009F4F0E944C0F52CFB82E76CF8091E80319
:1024900081113BC00E949B0D62EA72E0CE01019661
:1024A0000E947E10BE016F5F7F4F88E190E00E9426
:1024B000490ECE0101960E944C0F65E070E080E06D
:1024C00090E00E94E7096091690470916A04CE016E
:1024D00001960E947510BE016F5F7F4F80E290E011
:1024E0000E94490ECE0101960E944C0F65E070E0FB
:1024F00080E090E00E94E70964EF71E080E090E006
:102500000E94E70981E08093E80380912A03C9547F
:10251000DF4F288139814A815B81C75BD040281B0E
:10252000310941095109DA01C901C397A105B10572
:1025300014F40C946C224DB75EB7CD53DF4F598322
:102540004883C35CD0408DB79EB7805691090FB6C3
:10255000F8949EBF0FBE8DBFADB7BEB711964D01AB
:102560007D010DB71EB70F591F4FC7010E94931071
:10257000B8E1EB0EF11C0E151F05B9F7E0916904E7
:10258000F0916A048091EA0390E0880F991F2781F7
:102590003085820F931FDC010D911C91D680EDB721
:1025A000FEB7C753DF4FF983E883C95CD040CE0143
:1025B00087589F4F0E9493101F930F938091060599
:1025C0001F928F9380EB92E09F938F939E012F5FDA
:1025D0003F4F79013F932F930E94C52F65E070E034
:1025E000C7010E94AB0A4DB75EB7485F5F4F0FB699
:1025F000F8945EBF0FBE4DBF8823C9F0CB54DF4FA8
:1026000019821882C55BD040AE014B545F4F60E425
:1026100070E0C7010E94F00A8B81873E09F41DC15A
:1026200010920505809108058F5F80930805CE0103
:1026300087589F4F0E94540FC753DF4F888199815D
:10264000C95CD0400FB6F8949EBF0FBE8DBF80917D
:102650002B0381110C941D1F80912204909123045F
:102660000297D8F080911C0490911D040297A8F065
:102670008091160490911704029778F080911004CD
:1026800090911104029748F08091E703811105C0F1
:1026900081E08093E7030E949B0D8091220490913A
:1026A00023040297B8F080911C0490911D040297B6
:1026B00088F08091160490911704029758F0809149
:1026C000100490911104029728F08091E703811182
:1026D0000C94651E61ED72E0CE0101960E947E10A1
:1026E000BE016F5F7F4F80E390E00E94490ECE01F4
:1026F00001960E944C0F65E070E080E090E00E943F
:10270000E7096FED72E0CE0101960E947E10BE01D6
:102710006F5F7F4F88E390E00E94490ECE010196E3
:102720000E944C0F65E070E080E090E00E94E709B5
:102730008401045F1F4FC8010E94420881110C945C
:10274000FD1EB801CE0101960E9475106FEC72E07B
:10275000CE0101960E94B80FB4016E5E7F4F0E94B9
:10276000CE0FBC018EE194E00E945E10CE01019676
:102770000E944C0F84010C5D1F4FC8010E9442084B
:1027800081110C94051FB801CE0101960E947510AD
:102790006FEC72E0CE0101960E94B80FB401665D45
:1027A0007F4F0E94CE0FBC0188E194E00E945E1032
:1027B000CE0101960E944C0F8401045C1F4FC8019A
:1027C0000E94420881110C940D1FB801CE010196A0
:1027D0000E9475106FEC72E0CE0101960E94B80F56
:1027E000B4016E5B7F4F0E94CE0FBC0182E194E08A
:1027F0000E945E10CE0101960E944C0F84010C5A7B
:102800001F4FC8010E94420881110C94151FB80186
:10281000CE0101960E9475106FEC72E0CE01019618
:102820000E94B80FB401665A7F4F0E94CE0FBC01C0
:102830008CE094E00E945E10CE0101960E944C0F45
:10284000C954DF4F9881C75BD04090932A03109200
:10285000360201E010E00C94BF1FCB54DF4F88819B
:102860009981C55BD040049763E070E00E948E2D93
:10287000CB53DF4F79836883C55CD04065307105E9
:102880000CF0CECE61EA72E0CE0181559F4F0E94DE
:102890007E1057E1D51234C169E07FE007311105A0
:1028A000D1F00CF00CC168E87FE00230110599F01E
:1028B00044F46CEA7FE00130110569F06EE57EE0DA
:1028C0000AC067E67FE00330110529F069E37FE085
:1028D0000631110599F7CE0181559F4F0E94E10FF6
:1028E000CD54DF4F48815981C35BD0404F5F5F4F6C
:1028F000ADB7BEB7A41BB50B0FB6F894BEBF0FBEE5
:10290000ADBF0DB71EB70F5F1F4F4115510531F019
:10291000B801CE0181559F4F0E94260E68EB72E0F0
:10292000C8010E94CA286C01C554DF4FF982E882B1
:10293000CB5BD040C354DF4F19821882CD5BD040AF
:10294000C154DF4F19821882CF5BD0401E01B1E421
:102950002B0E311CE1E6F0E0EC0FFD1F3C96CF534F
:10296000DF4FF983E883C15CD04021E630E02C0FD3
:102970003D1F2E5E3F4FC953DF4F39832883C75C0D
:10298000D040CB53DF4F48815981C55CD040C35400
:10299000DF4F88819981CD5BD0408417950714F073
:1029A0000C945E1E0196C354DF4F99838883CD5BE0
:1029B000D040C554DF4FA881B981CB5BD04013967E
:1029C0007C90139714960C91149715961C91B60150
:1029D000CE0187559F4F0E947E10CE018F599F4F89
:1029E0000E94931061EA72E0CE018D559F4F0E94C4
:1029F0007E1061EA72E0CE0183569F4F0E947E10E6
:102A0000E72DF0E0C553DF4FF983E883CB5CD0407E
:102A1000A02EB12CC12ED12CEFEFE70DE63410F033
:102A20000C94481E0E2E000CFF0BE75EFA4E0C9421
:102A3000A22DCA16E0170118221849186418851823
:102A4000A618C718EA18F6181F194019631984192F
:102A5000481E481EA519C619DA19F719181A391A85
:102A60003F1A601A831A911AB81A481EC61AD81A41
:102A7000481EDB1AED1A101B311B4A1B531B761B19
:102A8000791BA61BB71BE41B0B1C371C5E1C741C9C
:102A9000891C9A1CB01CD31CD61CF91C221D311D8C
:102AA000431D521D481E621D651D481E7A1D481E8D
:102AB0009B1DA91DCC1DE01D091E1E1E331E69E9AC
:102AC0007EE00233110509F406CF6CF469ED7EE077
:102AD0000831110509F4FFCE6BEB7EE009311105D9
:102AE00009F4F9CEEBCE6BE77EE00D37110509F462
:102AF000F2CE6FE57EE00E37110509F4ECCEDECEA6
:102B000081E0D812EDCEF8013197ED37F10508F0EC
:102B10003EC1E357FA4E0C94A22D0A160D1610165C
:102B2000131616161916C716C716C7161C161F1623
:102B3000C716C716221625162816C7162B16C7162F
:102B40002E16C71631163416C716C7163716C716EF
:102B50003A16C7163D164016431646164916C716AE
:102B60004C164F16C716C716C7165216C716551657
:102B7000C716C7165816C716C716C7165B165E16B1
:102B8000C7166116641667166A16C716C716C716E3
:102B90006D1670167316C7167616C7167916C716F1
:102BA000C716C7167C16C716C716C716C716C71688
:102BB000C7167F16C716C716C7168216C716C716BA
:102BC000C716C71685168816C716C7168B168E1613
:102BD000C716C7169116C716C716C716C716941676
:102BE00097169A169D16C716C716C716C716A016AB
:102BF000C716C716A316A616C716A916AC16AF1683
:102C0000B216B516B816BB16BE16C716C116C7162D
:102C1000C716C4166CE27EE05ECE6DE07EE05BCE51
:102C20006AEE7DE058CE6AEB7DE055CE67E87DE048
:102C300052CE6AE57DE04FCE63E27DE04CCE6AEF96
:102C40007CE049CE61ED7CE046CE6DEA7CE043CE8F
:102C500065E97CE040CE6DE77CE03DCE65E57CE05B
:102C60003ACE66E17CE037CE67ED7BE034CE67EBB1
:102C70007BE031CE6FE87BE02ECE61E87BE02BCEAF
:102C80006FE67BE028CE69E67BE025CE6BE47BE057
:102C900022CE64E17BE01FCE6EEF7AE01CCE63EEC5
:102CA0007AE019CE6BEA7AE016CE64E77AE013CECA
:102CB00063E57AE010CE6CE17AE00DCE64EE79E067
:102CC0000ACE60EB79E007CE60E779E004CE67E3F7
:102CD00079E001CE64E079E0FECD6BEC78E0FBCDED
:102CE0006FE878E0F8CD6DE478E0F5CD67E078E066
:102CF000F2CD64EC77E0EFCD6EE977E0ECCD6EE6F7
:102D000077E0E9CD63E577E0E6CD68E177E0E3CD14
:102D10006DED76E0E0CD6CEA76E0DDCD68E776E05B
:102D2000DACD62E576E0D7CD6FE176E0D4CD62EF23
:102D300075E0D1CD6AEB75E0CECD69E875E0CBCD1D
:102D400066E675E0C8CD6BE275E0C5CD6BEF74E06B
:102D5000C2CD60EC74E0BFCD6CE874E0BCCD68E639
:102D600074E0B9CD61E374E0B6CD6EEE73E0B3CD3F
:102D70006EEC73E0B0CD65E973E0ADCD68E573E06E
:102D8000AACD6CE273E0A7CD6EEE72E0A4CD6DEE3D
:102D900072E0A1CDB5010B2C000C880B990B0E94A1
:102DA000642B2DEC3CEC4CE45EE30E949F2B2B014A
:102DB0003C01B6010D2C000C880B990B0E94642B72
:102DC0009B01AC01C301B2010E949F2B2B013C016E
:102DD00069EE72E0CE0183569F4F0E94E10FCF55FE
:102DE000DF4F88819981C15AD040892B89F18101B7
:102DF00022E044E0C301B2010E949C28B101CE014F
:102E00008F569F4F0E947E10BE016F567F4FCE019E
:102E100089569F4F0E9475106FEC72E0CE01895663
:102E20009F4F0E94B80FBE0163567F4F0E94CE0F86
:102E3000BC01CE018D559F4F0E945E10CE01895678
:102E40009F4F0E944C0FCE018F569F4F0E944C0FF8
:102E5000C553DF4F48815981CB5CD040A3965FAF0B
:102E60004EAFA397A596BFAEAEAEA597A796DFAE21
:102E7000CEAEA797B101CE018F569F4F0E947E1014
:102E8000BE016F567F4FCF53DF4F88819981C15C60
:102E9000D0400E94010FCE018F569F4F0E944C0FD1
:102EA000BE0163567F4FC953DF4F88819981C75C4C
:102EB000D0400E945E10CE0183569F4F0E944C0F5F
:102EC000CE018D559F4F0E944C0FCE0187559F4FCD
:102ED0000E944208811154C0CF53DF4F88819981ED
:102EE000C15CD0400E94420881114AC088E1C154AF
:102EF000DF4FA881B981CF5BD0408A9F80018B9F33
:102F0000100D1124080D191DA3968EAD9FADA3972A
:102F1000F80191838083A5968EAD9FADA59793838D
:102F20008283A7968EAD9FADA79795838483BE01BC
:102F300067557F4FC80106960E945E10CF53DF4F42
:102F400068817981C15CD040C8010C960E945E10F6
:102F5000C953DF4F68817981C75CD040C801429670
:102F60000E945E10C154DF4F28813981CF5BD04071
:102F70002F5F3F4FC154DF4F39832883CF5BD04051
:102F800068EB72E090E080E00E94CA286C01CE01FC
:102F90008F599F4F0E94540FCE0187559F4F0E941B
:102FA0004C0FC554DF4F48815981CB5BD0404D5FFA
:102FB0005F4FC554DF4F59834883CB5BD040E1CC92
:102FC000B5010B2C000C880B990B0E94642B2FE68B
:102FD00032E143E05BE30E949F2B2B013C01B601F1
:102FE0000D2C000C880B990B0E94642B9B01AC01EB
:102FF000C301B2010E949F2B2B013C0167EE72E0DE
:10300000E9CEB5010B2C000C880B990B0E94642BA8
:103010002FE632E143E05BE30E949F2B2B013C0152
:10302000B6010D2C000C880B990B0E94642B9B01A0
:10303000AC01C301B2010E949F2B2B013C0163EE46
:1030400072E0C8CEB6016F57710917FD04C06FE773
:1030500070E06C197D09072E000C880B990B0E94FB
:10306000642B2AE037ED43E25CE30E949F2B2B01A7
:103070003C01B5010B2C000C880B990B0E94642BB2
:10308000A30192010E949F2B2B013C016EED72E087
:10309000A1CEC601845691098A9DB0018B9D700D09
:1030A0009A9D700D1124072E000C880B990B0E941D
:1030B000642B2DEC3CEC4CEC5DE30E949F2B2B0130
:1030C0003C016CED72E086CEB5010B2C000C880B38
:1030D000990B0E94642B2FE632E143E85AE30E94E9
:1030E0009F2B2B013C01B6010D2C000C880B990B7A
:1030F0000E94642B9B01AC01C301B2010E949F2B73
:103100002B013C016AED72E065CEB5010B2C000C81
:10311000880B990B0E94642B2AE037ED43E25CE3B5
:103120000E949F2B2B013C01B6010D2C000C880B3B
:10313000990B0E94642B9B01AC01C301B2010E9458
:103140009F2B2B013C0165ED72E044CEB5010B2CA9
:10315000000C880B990B0E94642B2DEC3CEC4CEC82
:103160005DE30E949F2B2B013C01B6010D2C000C4E
:10317000880B990B0E94642B9B01AC01C301B20127
:103180000E949F2B2B013C0163ED72E023CEB60120
:103190006F577109072E000C880B990B0E94642B46
:1031A0002AE037ED43EA5CE30E949F2B2B013C01B0
:1031B000B5010B2C000C880B990B0E94642B9B0112
:1031C000AC01C301B2010E949F2B2B013C016FECAB
:1031D00072E000CE6AEC72E0112311F065EC72E04F
:1031E000CE018D559F4F0E94E10F3DC3B5010B2CC1
:1031F000000C880B990B0E94642B27E137EB41ED03
:1032000058E30E949F2B2B013C01B60160587109C5
:10321000072E000C880B990B0E94642B9B01AC01BC
:10322000C301B2010E949F2B20E030E040E85FE341
:103230000E94A42C2B013C0163EC72E0CBCDB501C4
:103240000B2C000C880B990B0E94642B2FE632E1AB
:1032500043E85AE30E949F2B2B013C01B6010D2C41
:10326000000C880B990B0E94642B9B01AC01C301DD
:10327000B2010E949F2B2B013C016FEB72E0AACDA3
:10328000B6016F577109072E000C880B990B0E942D
:10329000642B2FE632E143E85AE30E949F2B2B0177
:1032A0003C01B5010B2C000C880B990B0E94642B80
:1032B0009B01AC01C301B2010E949F2B2B013C0179
:1032C0006CEB72E087CDB5010B2C000C880B990BD1
:1032D0000E94642B2AE037ED43EA5BE30E949F2BB8
:1032E0002B013C01B6010D2C000C880B990B0E94A0
:1032F000642B9B01AC01C301B2010E949F2B2B01E7
:103300003C0168EB72E066CDB5010B2C000C880B1C
:10331000990B0E94642B2AE037ED43E25CE30E94A4
:103320009F2B2B013C01B6010D2C000C880B990B37
:103330000E94642B9B01AC01C301B2010E949F2B30
:103340002B013C0165EB72E045CDB5010B2C000C67
:10335000880B990B0E94642B2AE037ED43E25DE372
:103360000E949F2B2B013C01B6010D2C000C880BF9
:10337000990B0E94642B9B01AC01C301B2010E9416
:103380009F2B2B013C0160EB72E024CD109FB0011C
:103390001124072E000C880B990B0E94642B2AE045
:1033A00037ED43E25CE30E949F2B2B013C016EEA68
:1033B00072E010CDC601805891098A9DB0018B9DA5
:1033C000700D9A9D700D112477FF02C061587F4FD8
:1033D000660F672F661F770B072E000C880B990B63
:1033E0000E94642B2B013C016CEA72E0F3CCB50126
:1033F0000B2C000C880B990B0E94642B2FE632E1FA
:1034000043E85AE30E949F2B2B013C01B6010D2C8F
:10341000000C880B990B0E94642B9B01AC01C3012B
:10342000B2010E949F2B2B013C016AEA72E0D2CCD0
:10343000B5010B2C000C880B990B0E94642B2FE616
:1034400032E143E85AE30E949F2B2B013C01B60175
:103450000D2C000C880B990B0E94642B9B01AC0176
:10346000C301B2010E949F2B2B013C0167EA72E06D
:10347000B1CC65EA72E0CE0183569F4FB4CEB50160
:103480000B2C000C880B990B0E94642B2FE632E169
:1034900043E85AE30E949F2B2B013C01B6010D2CFF
:1034A000000C880B990B0E94642B9B01AC01C3019B
:1034B000B2010E949F2B2B013C0163EA72E08ACC8F
:1034C000B6010D2C000C880B990B0E94642B24E58F
:1034D00033EE45EB5FE30E949F2B2B013C0161E043
:1034E000063B08F460E070E090E080E00E94642B0E
:1034F0009B01AC01C301B2010E94A42C2B013C0131
:103500006FE972E067CCB6016A197B09072E000CDF
:10351000880B990B0E94642B2B013C016DE972E032
:1035200059CCB60160587109113820F460E870E098
:103530006C197D09072E000C880B990B0E94642BD7
:103540002AE037ED43E25CE30E949F2B2B013C0114
:10355000B5010B2C000C880B990B0E94642BA30166
:1035600092010E949F2B2B013C0169E972E032CC51
:10357000B6016A197B09072E000C880B990B0E9473
:10358000642B2B013C0167E972E024CC812F6CE0B5
:103590000E94822D809FB0011124072E000C880B01
:1035A000990B0E94642B2B013C016FE872E012CC56
:1035B00069E872E060CFF4E61F9FC0011124B501F5
:1035C0000E948E2D072E000C880B990B0E94642BF5
:1035D0002B013C0167E872E0FDCBB6016058710930
:1035E000072E000C880B990B0E94642B2AE037ED04
:1035F00043E25CE30E949F2B2B013C01B5010B2CA5
:10360000000C880B990B0E94642B9B01AC01C30139
:10361000B2010E949F2B2B013C0164E872E0DACBDF
:10362000B5010B2C000C880B990B0E94642B2AE02F
:1036300037ED43E25CE30E949F2B2B013C01B60176
:103640000D2C000C880B990B0E94642B9B01AC0184
:10365000C301B2010E949F2B2B013C0160E872E084
:10366000B9CB202F30E0A0E0BAE00E94942C2B01CF
:103670003C01212F30E0AAE0B0E00E94942C640DC0
:10368000751D861D971D0E94622B2B013C016DE765
:1036900072E0A0CB612F70E090E080E00E94622B8E
:1036A0002B013C019CCBB60160587109072E000C20
:1036B000880B990B0E94642B2FE632E143E85AE312
:1036C0000E949F2B2B013C01B5010B2C000C880B99
:1036D000990B0E94642B9B01AC01C301B2010E94B3
:1036E0009F2B2B013C0165E772E074CB60E772E031
:1036F000C2CEB6010D2C000C880B990B0E94642BD6
:103700002DEC3CEC4CEC5DE30E949F2B2B013C012B
:10371000B5010B2C000C880B990B0E94642B20E048
:1037200030E04CEC51E40E949F2B9B01AC01C301A3
:10373000B2010E94A42C20E030E048EC53E40E9447
:10374000A32C2B013C016EE672E044CBB6012FEFB7
:10375000029F600D711D1124072E000C880B990B20
:103760000E94642B2B013C016BE672E033CBB60167
:103770000D2C000C880B990B0E94642B2DEC3CEC5B
:103780004CEC5DE30E949F2B2B013C01B5010B2CFF
:10379000000C880B990B0E94642B20E030E04CEC6D
:1037A00051E40E949F2B9B01AC01C301B2010E9416
:1037B000A42C20E030E048EC53E40E94A32C2B0121
:1037C0003C0168E672E006CBB6010D2C000C880BBC
:1037D000990B0E94642B2DEC3CEC4CEC5DE30E94B9
:1037E0009F2B2B013C01B5010B2C000C880B990B76
:1037F0000E94642B20E030E04CEC51E40E949F2BAF
:103800009B01AC01C301B2010E94A42C2B013C011D
:1038100066E672E0DFCA1F921F931F920F938AEB36
:1038200092E09F938F933F922F920E94C52FB101F8
:10383000CE018F569F4F0E947E10BE016F567F4F64
:10384000CE018D559F4F0E94010FCE018F569F4F85
:103850000E944C0F4DB75EB7485F5F4F0FB6F894AC
:103860005EBF0FBE4DBF412C512C3201B8CAB5010D
:103870000B2C000C880B990B0E94642B2DEC3CEC5C
:103880004CEC5DE30E949F2B2B013C01B6010D2CFB
:10389000000C880B990B0E94642B9B01AC01C301A7
:1038A000B2010E949F2B20E030E048EC52E40E94DD
:1038B000102D2B013C0164E672E08CCA109FB00110
:1038C000112460587C40072E000C880B990B0E9435
:1038D000642B2CE732EF40E35BE30E949F2B2B012C
:1038E0003C016CE572E076CAC601805891098A9D58
:1038F000B0018B9D700D9A9D700D1124072E000C48
:10390000880B990B0E94642B2B013C0169E572E046
:1039100061CAB6015FEF059F600D711D1124072E6E
:10392000000C880B990B0E94642B2B013C0167E56E
:1039300072E050CA16951695109FB0011124072EFB
:10394000000C880B990B0E94642B2DEC3CEC4CEC8A
:103950005DE30E949F2B2B013C0162E572E03ACAB5
:10396000B60160587109072E000C880B990B0E9454
:10397000642B2B013C01B5010B2C000C880B990B1F
:103980000E94642B2AE037ED43E25CE30E949F2B08
:103990009B01AC01C301B2010E94102D2B013C011F
:1039A0006DE472E017CA68E472E065CDB5010B2CD6
:1039B000000C880B990B0E94642B2B013C01B60173
:1039C0000D2C000C880B990B0E94642B2AE037ED1C
:1039D00043EA5CE30E949F2BA30192010E949F2B6C
:1039E000A30192010E94A32C2B013C0165E472E02B
:1039F000F1C9B60160587109072E000C880B990BAC
:103A00000E94642B26EA3AE046EB5FE30E949F2B7C
:103A10002B013C01B5010B2C000C880B990B0E946B
:103A2000642B26EA3BE944EC5BE30E949F2B9B015D
:103A3000AC01C301B2010E94A42C2B013C0161E442
:103A400072E0C8C97A2D66276C0D7D1D072E000C0B
:103A5000880B990B0E94642B2B013C016BE372E0F5
:103A6000B9C9109FC001112468EC70E00E948E2D2E
:103A7000072E000C880B990B0E94642B2B013C0134
:103A800069E372E0A7C97A2D66276C0D7D1D072EAC
:103A9000000C880B990B0E94642B2B013C0165E301
:103AA00072E098C97A2D66276C0D7D1D072E000CDB
:103AB000880B990B01960E94642B2B013C0161E35A
:103AC00072E088C96DE272E0D6CC7A2D66276C0D63
:103AD0007D1D072E000C880B990B0E94642B2AE099
:103AE00037ED43E25CE30E949F2B2B013C0169E22E
:103AF00072E070C9B5010B2C000C880B990B0E9469
:103B0000642B2FE632E143E85EE30E949F2B2B01FA
:103B10003C01B6010D2C000C880B990B0E94642B04
:103B20009B01AC01C301B2010E949F2B2B013C0100
:103B300067E272E04FC9B6016A0D7B1D072E000CCB
:103B4000880B990B0E94642B2B013C0163E272E00D
:103B500041C9B5010B2C000C880B990B0E94642BFA
:103B60002AE037ED43E25CE30E949F2B2B013C01EE
:103B7000B6016F577109072E000C880B990B0E9434
:103B8000642B9B01AC01C301B2010E949F2B2B014E
:103B90003C0160E272E01EC9109FB0011124072EA3
:103BA000000C880B990B0E94642B2CE53FE84FEF2B
:103BB00053E40E94102D2B013C016EE172E00AC912
:103BC00080E892E0A89EB001A99E700DB89E700D8D
:103BD0001124072E000C880B990B0E94642B2B01DB
:103BE0003C01B6010D2C000C880B990B0E94642B34
:103BF00020E030E040E250E40E949F2B9B01AC01AA
:103C0000C301B2010E94A42C2B013C016AE172E0C5
:103C1000E1C87A2D66276C0D7D1D072E000C880BE0
:103C2000990B0E94642B24E13EEA4BEE50E40E9483
:103C3000102D2B013C0164E172E0CCC87A2D66277F
:103C40006C0D7D1D072E000C880B990B0E94642BB8
:103C500024ED3AE946EA5EE30E949F2B2B013C01EA
:103C600060E172E0B7C87A2D66276C0D7D1D072EC6
:103C7000000C880B990B0E94642B26EA3BE944E474
:103C80005EE30E949F2B2B013C016AE072E0A2C818
:103C90001F921F931F920F93A2ECB2E0BF93AF93BA
:103CA0003F922F920E94C52F2DB73EB7285F3F4FFE
:103CB0000FB6F8943EBF0FBE2DBFD5CDCE018155B6
:103CC0009F4F0E944C0F0C941713E091EA03F0E011
:103CD000EE0FFF1FE25FFD4F8081918123961FAEA3
:103CE0001EAE239725961FAE1EAE259727961FAEB4
:103CF0001EAE27974AE0B7010E94F628B701CE0111
:103D00008F5B9F4F0E9427106EEE72E0C7010E94EA
:103D10007E10BE016F5B7F4FC7010E94CE0FBC01BA
:103D2000CE018F599F4F0E947510BE016F597F4F72
:103D300088E090E00E94490ECE018F599F4F0E946B
:103D40004C0FC7010E944C0FCE018F5B9F4F0E940A
:103D50004C0FB4016A5F7F4FC7010E947510B70115
:103D600080E190E00E94490EC7010E944C0F6EE175
:103D700074E0C7010E947510B70188E290E00E94CC
:103D8000490EC7010E944C0F65E070E080E090E0B2
:103D90000E94E70968E174E0C7010E947510B7014D
:103DA00080E390E00E94490EC7010E944C0F65E03D
:103DB00070E080E090E00E94E70962E174E0C701F2
:103DC0000E947510B70188E390E00E94490EC70178
:103DD0000E944C0F65E070E080E090E00E94E709EF
:103DE0006CE074E0C7010E947510B70180E490E0B8
:103DF0000E94490EC7010C9490136EEC72E08EE1A4
:103E000094E00E9427100C94BA136EEC72E088E1E3
:103E100094E00E9427100C94DC136EEC72E082E1B7
:103E200094E00E9427100C94FE136EEC72E08CE07C
:103E300094E00E9427100C94201480912804909103
:103E40002904029738F180911C0490911D04029777
:103E500008F180911604909117040297D8F0809190
:103E60001004909111040297A8F080910A04909197
:103E70000B04029778F08091040490910504029756
:103E800048F08091E703811105C081E08093E7034A
:103E90000E949B0D8091280490912904029710F1B3
:103EA00080911C0490911D040297E0F0809116040B
:103EB000909117040297B0F0809110049091110432
:103EC000029780F080910A0490910B04029750F0C1
:103ED0008091040490910504029720F08091E703FB
:103EE00081115CC061ED72E0CE0101960E947E10EE
:103EF000BE016F5F7F4F80E390E00E94490ECE01CC
:103F000001960E944C0F65E070E080E090E00E9416
:103F1000E7096FED72E0CE0101960E947E10BE01AE
:103F20006F5F7F4F88E390E00E94490ECE010196BB
:103F30000E944C0F65E070E080E090E00E94E7098D
:103F4000D0903602AD2DA150BB0B8D01A130B10533
:103F500009F4B5C0A230B10509F4FBC0AB2B11F0D8
:103F60000C942914D394D092360286E08093EA030D
:103F7000C954DF4FB881C75BD040B0932A037401A6
:103F800020E6E20EF11CE814F90409F450C138E10E
:103F9000E31AF108C7010E94540FF5CF65EF72E0F4
:103FA000C7010E947E10B70188E090E00E94490E90
:103FB000C7010E944C0F65E070E080E090E00E9435
:103FC000E70962E073E0C7010E947E10B70180E15B
:103FD00090E00E94490EC7010E944C0F65E070E01E
:103FE00080E090E00E94E70964E274E0C7010E946B
:103FF0007510B70180E290E00E94490EC7010E944F
:104000004C0F65E070E080E090E00E94E70968E115
:1040100074E0C7010E947510B70180E390E00E9430
:10402000490EC7010E944C0F65E070E080E090E00F
:104030000E94E70962E174E0C7010E947510B701B0
:1040400088E390E00E94490EC7010E944C0F65E092
:1040500070E080E090E00E94E7096CE074E0C70146
:104060000E947510B70180E490E00E94490EC701DC
:104070000E944C0F65E070E080E090E00E94E7094C
:1040800066E074E0C7010E947510B70188E490E013
:104090000E94490EC7010E944C0F65E070E080E06D
:1040A00090E00E94E70960E074E0C7010E9475108B
:1040B000B70180E590E00E94490EC70139CF6EE05C
:1040C00073E0CE0101960E947E10B401645C7F4FC4
:1040D000CE0101960E94CE0F6FEC72E00E94B80FE5
:1040E000B4016E5B7F4F0E94CE0FBC0184E294E06E
:1040F0000E945E10CE0101960E944C0FB4016C5AD2
:104100007F4FCE0101960E9475106FEC72E0CE01D8
:1041100001960E94B80FB401665A7F4F0E94CE0FDD
:10412000BC0188E194E00E945E10CE0101960E94DD
:104130004C0FD394D09236028AE08093EA03C9549C
:10414000DF4FE881C75BD040E0932A0310E000E036
:1041500016CFB401645F7F4FC7010E9475106FECEA
:1041600072E0C7010E94B80FB4016E5E7F4F0E94DB
:10417000CE0FBC0182E194E00E945E10C7010E9454
:104180004C0FB4016C5D7F4FC7010E9475106FEC3E
:1041900072E0C7010E94B80FB401665D7F4F0E94B4
:1041A000CE0FBC018CE094E00E945E10C7010E941B
:1041B0004C0FB401645C7F4FC7010E9475106FEC17
:1041C00072E0C7010E94B80FB4016E5B7F4F0E947E
:1041D000CE0FBC0186E094E00E945E10C7010E94F1
:1041E0004C0FB4016C5A7F4FC7010E9475106FECE1
:1041F00072E0C7010E94B80FB401665A7F4F0E9457
:10420000CE0FBC0180E094E00E945E10C7010E94C6
:104210004C0F82E08093360286E08093EA03C95413
:10422000DF4FF881C75BD040F0932A038FCF013076
:10423000110561F4CD53DF4F48815981C35CD040F3
:104240000FB6F8945EBF0FBE4DBF46C1CD53DF4FD2
:1042500088819981C35CD0400FB6F8949EBF0FBE91
:104260008DBF3AC18091EB038111F3C061E772E029
:1042700084E594E00E94271069E772E08EE494E000
:104280000E9427100E941A0A68EC70E080E090E01B
:104290000E94E7090E949B0D65E070E080E090E0DD
:1042A0000E94E70944E851E061E480E00E948A0E40
:1042B00044E051E060E186E40E948A0E6CEA7DE011
:1042C00080E090E00E94E7090E941A0A68EC70E022
:1042D00080E090E00E94E7090E949B0D60E674E098
:1042E000CE0101960E947510BE016F5F7F4F88E17D
:1042F00090E00E94490ECE0101960E944C0F6AE5A3
:1043000074E0CE0101960E947510BE016F5F7F4F71
:1043100080E290E00E94490ECE0101960E944C0F6F
:1043200065E070E080E090E00E94E70964E574E0F9
:10433000CE0101960E947510BE016F5F7F4F88E22B
:1043400090E00E94490ECE0101960E944C0F65E05C
:1043500070E080E090E00E94E7096EE474E0CE0136
:1043600001960E947510BE016F5F7F4F80E390E061
:104370000E94490ECE0101960E944C0F65E070E04C
:1043800080E090E00E94E70968E474E0CE010196C5
:104390000E947510BE016F5F7F4F88E390E00E941E
:1043A000490ECE0101960E944C0F65E070E080E05E
:1043B00090E00E94E70962E474E0CE0101960E9459
:1043C0007510BE016F5F7F4F80E490E00E94490E40
:1043D000CE0101960E944C0F65E070E080E090E015
:1043E0000E94E7096CE374E0CE0101960E9475100B
:1043F000BE016F5F7F4F88E490E00E94490ECE01BE
:1044000001960E944C0F65E070E080E090E00E9411
:10441000E70966E374E0CE0101960E947510BE01C3
:104420006F5F7F4F80E590E00E94490ECE010196BC
:104430000E944C0F65E070E080E090E00E94E70988
:104440006CEA7DE080E090E00E94E70981E08093E3
:10445000EB0301110C942E11133011F00C9439114F
:104460008091EA03833110F40C9434111092EA0322
:1044700061EA72E08AE294E00E94271061EA72E049
:1044800084E294E00E94271061EA72E08EE194E0F9
:104490000E94271061EA72E088E194E00E942710F0
:1044A00061EA72E082E194E00E94271061EA72E022
:1044B0008CE094E00E94271061EA72E086E094E0CC
:1044C0000E94271061EA72E080E094E00E942710C9
:1044D0001092E7030E949B0DC353DF4FA881B9815F
:1044E000CD5CD0400FB6F894BEBF0FBEADBFC25377
:1044F000DF4F0FB6F894DEBF0FBECDBFDF91CF9177
:104500001F910F91FF90EF90DF90CF90BF90AF90F1
:104510009F908F907F906F905F904F903F902F90E3
:1045200008958823C9F28091E80381118AC000911F
:10453000690410916A040E941A0A65E070E080E044
:1045400090E00E94E7090E949B0D65E070E080E02A
:1045500090E00E94E70962E872E0CE0101960E94B5
:104560007E10BE016F5F7F4F88E190E00E94490E90
:10457000CE0101960E944C0F65E070E080E090E073
:104580000E94E709B801CE0101960E947510BE0194
:104590006F5F7F4F80E290E00E94490ECE0101964E
:1045A0000E944C0F65E070E080E090E00E94E70917
:1045B00063E0CE018F599F4F0E9431106091370206
:1045C000CE018F5B9F4F0E94311061E972E0CE01F6
:1045D00001960E947E10BE016F5B7F4FCE01019657
:1045E0000E94CE0F6AE972E00E94B80FBE016F59B7
:1045F0007F4F0E94CE0FBC01CE0187589F4F0E9473
:104600007510BE0167587F4F80E390E00E94490E0D
:10461000CE0187589F4F0E944C0FCE0101960E94F9
:104620004C0FCE018F5B9F4F0E944C0FCE018F59D4
:104630009F4F0E944C0F65E070E080E090E00E9488
:10464000E709E0916904F0916A04F680109206058A
:104650000091090510910A05D8015A961C921E92E4
:10466000599758961C921E92579756961C921E92D6
:10467000559790E080E0FC01EE59FE4F4591559131
:1046800065917491403A58426105710511F00C949E
:104690005711FC01EA59FE4F25913491F801348BF2
:1046A000238BFC01E859FE4F25913491D801569691
:1046B0003C932E935597FC01E659FE4F259134917A
:1046C000F801308F278BFC01E459FE4F85919491BE
:1046D0005A969C938E935997D80157968D919C9199
:1046E0005897892BD1F11C968C91863180F5909149
:1046F0006800883010F40C94621121E08E3008F4C8
:1047000020E081E001C0880F2A95EAF7892B809389
:104710006800F8019485EDE6F0E0983050F0EBE6A3
:10472000F0E09E3030F0ECE6F0E0963110F0F0E092
:10473000E0E04081292F30E0983010F00C946511B2
:1047400081E001C0880F9A95EAF7842B8083D80115
:1047500059968D919C910E94790C80917003909153
:1047600071030817190779F0F801838D8E7F838F05
:104770008FB7F89410926E0310926F031093710329
:10478000009370038FBF8E010F5F1F4FF80150E041
:1047900040E080E0A1E0A02E512E6F2D70E08193CB
:1047A0009A012F5F3F4F2A30310511F00C9473119D
:1047B000F12CE12CD8019D918D018091040561E0DF
:1047C000913009F060E00E94E608BFEFEB1AFB0AA7
:1047D00068EC70E080E090E00E94E709EAE0EE1605
:1047E000F10441F78091090590910A05DC01ED91F2
:1047F000FC910680F781E02D099583E090E0C35697
:10480000DF4F99838883CD59D040AE0143565F4F27
:1048100063E070E0CE018F569F4F0E94F00A88231C
:10482000F1F0CF56DF4F8881C159D040853581F4F2
:10483000CE56DF4F8881C259D040813049F4CD56E1
:10484000DF4F9881C359D0409A3811F40C948611E7
:1048500010920505809108058F5F8093080580916F
:1048600037028F5F0C94C6111F920F920FB60F92F2
:1048700011242F933F938F939F93AF93BF93809176
:10488000DE039091DF03A091E003B091E10330914A
:10489000DD0323E0230F2D3758F50196A11DB11D2F
:1048A0002093DD038093DE039093DF03A093E00366
:1048B000B093E1038091E2039091E303A091E403BC
:1048C000B091E5030196A11DB11D8093E203909381
:1048D000E303A093E403B093E503BF91AF919F91ED
:1048E0008F913F912F910F900FBE0F901F901895B1
:1048F00026E8230F0296A11DB11DD2CF1F920F9261
:104900000FB60F9211242F933F934F935F936F93A2
:104910007F938F939F93AF93BF93EF93FF93809178
:10492000B900887F803609F44AC0F0F5883209F46E
:10493000A5C018F5803109F499C0B8F4882309F4AA
:10494000F5C0883009F492C0FF91EF91BF91AF910B
:104950009F918F917F916F915F914F913F912F9197
:104960000F900FBE0F901F901895883109F486C0E4
:10497000803251F78093B60314C0803409F49BC091
:1049800040F48033B9F38833F9F68093B60385ECAD
:10499000AEC0803509F483C0883509F494C08834EA
:1049A00099F60E94B00BD0CF883909F48AC038F547
:1049B000883729F050F4883611F0803729F683E0E3
:1049C0008093B7031092B50355C0883809F479C0B5
:1049D000803919F0803809F0B7CF8091B503803263
:1049E00008F06FC0E091B50381E08E0F8093B503AE
:1049F0008091BB00F0E0EB56FC4F80833BC0803BD6
:104A000039F0D0F4803A09F477C0883A09F09CCFA5
:104A100084E08093B7031092940310929303F0E024
:104A2000E0E009958091930381110FC081E08093AC
:104A300093031092730309C0803C09F4A8CF883C0B
:104A400009F4A5CF883B09F07FCFE091940381E082
:104A50008E0F80939403F0E0ED58FC4F808180939B
:104A6000BB00909194038091930329C08091DC0353
:104A70008093BB0085EC8093BC0066CF9091DB03F4
:104A80008091DA03981758F5E091DB0381E08E0FEF
:104A90008093DB03F0E0E654FC4F8081E9CFE091A6
:104AA000DB0381E08E0F8093DB038091BB00F0E09D
:104AB000E654FC4F80839091DB038091DA039817D2
:104AC000C8F285E8D8CFE091DB0381E08E0F8093B8
:104AD000DB038091BB00F0E0E654FC4F80838091C3
:104AE000B90381115ECF81E08093B80384EA80939B
:104AF000BC001092B70328CF85EC8093BC001092C5
:104B0000B7038091B503803230F4E091B503F0E053
:104B1000EB56FC4F10826091B50370E085E993E09D
:104B2000F0E0E0E009951092B5030ECF1092B603C5
:104B300038CF1F920F920FB60F921124EF92FF926F
:104B40000F931F932F933F934F935F936F937F9395
:104B50008F939F93AF93BF93CF93DF93EF93FF9385
:104B6000C0917003D0917103209749F0EE85FF85C5
:104B70009D858B8D81FF1AC080818923D1F4FF919F
:104B8000EF91DF91CF91BF91AF919F918F917F91E5
:104B90006F915F914F913F912F911F910F91FF90D6
:104BA000EF900F900FBE0F901F9018958081892372
:104BB00031F78B899C890E94790C88E0E82EF12CD2
:104BC00010E001E08D899E890E94790CEE85FF85B9
:104BD00080819D85892339F1102B000F81E0E81A2F
:104BE000F10881F78F89988D0E94790C8B8D81FD5A
:104BF000109580916E0320916F0390E001968F7362
:104C000099272817190699F0E0916E03F0E0E25D0C
:104C1000FC4F108380916E0390E001968F7399276B
:104C200080936E03ACCF802F80951823D6CF8B8DC9
:104C300081608B8FA4CF1F920F920FB60F92112419
:104C40002F933F934F935F936F937F938F939F9394
:104C5000AF93BF93EF93FF930E949925FF91EF913C
:104C6000BF91AF919F918F917F916F915F914F9184
:104C70003F912F910F900FBE0F901F9018951F928C
:104C80000F920FB60F9211242F933F934F935F9380
:104C90006F937F938F939F93AF93BF93EF93FF9304
:104CA0000E949925FF91EF91BF91AF919F918F91B4
:104CB0007F916F915F914F913F912F910F900FBE18
:104CC0000F901F9018950F931F93CF93DF93EC01D4
:104CD000162F072F8FEF9FEF99AB88AB9BAB8AAB5B
:104CE0009DAB8CAB1EAA1FAA18AE19AE1AAE1BAE96
:104CF0001CAE1DAEFE01FE9610821182128213823E
:104D000034961082118212821382349691838083AA
:104D10003296108211821282138260E0812F0E94EB
:104D2000630960E0812F0E94E6081883098382E00E
:104D300090E09B838A8384E190E09F838E8380E070
:104D400094E09D838C838CE490E0998788878DE341
:104D500092E09B878A87DF91CF911F910F910895F1
:104D6000CF93DF9310920505109206051092070568
:104D70001092080585E08093030584E08093040584
:104D800061E00E94630961E084E00E94E6088CE132
:104D900090E00E94BC2DEC011B821A8288EE93E009
:104DA000A0E0B0E08C839D83AE83BF8383E692E076
:104DB000998388831C8A1B8A1E8A1D8A188E1F8AE3
:104DC0001A8E198E8B8D8E7F8D7F8B8F61E084E0A4
:104DD0000E94630961E084E00E94E608EBE1F0E1F3
:104DE000E491E88BE7E0F0E1E491F0E0EE0FFF1FE3
:104DF000E750F04F859194919A8B898B60E085E024
:104E00000E9463098B8D81FD04C061E085E00E94F2
:104E1000E60885E08C87ECE1F0E1E491ED87E8E0DD
:104E2000F0E1E491F0E0EE0FFF1FE151F04F8591CA
:104E300094919F878E87D0930A05C093090561E1FD
:104E400070E087EB94E00E94632660E170E08BE6FF
:104E500094E00E94632664E173E08EE492E00E9495
:104E60007E1068E173E083E492E00E947E1060E2CD
:104E700073E088E392E00E947E108EE492E09093CB
:104E80006A04809369048FE0809366048EE08093C7
:104E9000670480E18093680461EA72E080E694E050
:104EA0000E947E1061EA72E08AE594E00E947E1022
:104EB00061EA72E084E594E00E947E1061EA72E0AB
:104EC0008EE494E00E947E1061EA72E088E494E04F
:104ED0000E947E1061EA72E082E494E00E947E10FB
:104EE00061EA72E08CE394E00E947E1061EA72E075
:104EF00086E394E00E947E1064E273E080E394E035
:104F00000E947E1061EA72E08AE294E00E947E10C4
:104F100061EA72E084E294E00E947E1061EA72E04D
:104F20008EE194E00E947E1061EA72E088E194E0F4
:104F30000E947E1061EA72E082E194E00E947E109D
:104F400061EA72E08CE094E00E947E1061EA72E017
:104F500086E094E00E947E1061EA72E080E094E0D6
:104F6000DF91CF910C947E10789484B5826084BDDB
:104F700084B5816084BD85B5826085BD85B581605D
:104F800085BD80916E00816080936E0010928100DB
:104F90008091810082608093810080918100816096
:104FA0008093810080918000816080938000809157
:104FB000B10084608093B1008091B00081608093E3
:104FC000B00080917A00846080937A0080917A00AA
:104FD000826080937A0080917A00816080937A0069
:104FE00080917A00806880937A001092C1001092BC
:104FF000EB03C1E0C09337021092EA031092E90379
:105000001092E8031092E703109205050E94850DA7
:10501000C093E6030E94640AC0E0D0E00E94A91099
:105020002097E1F30E940000F9CF80E094E00E9415
:105030004C0F86E094E00E944C0F8CE094E00E94BC
:105040004C0F82E194E00E944C0F88E194E00E94B2
:105050004C0F8EE194E00E944C0F84E294E00E9499
:105060004C0F8AE294E00E944C0F80E394E00E948F
:105070004C0F86E394E00E944C0F8CE394E00E9476
:105080004C0F82E494E00E944C0F88E494E00E946C
:105090004C0F8EE494E00E944C0F84E594E00E9453
:1050A0004C0F8AE594E00E944C0F80E694E00E9449
:1050B0004C0F88E392E00E944C0F83E492E00E9440
:1050C0004C0F8EE492E00E944C0FE0910905F091A4
:1050D0000A05309781F183E692E09183808394857D
:1050E0009631C0F4ADE6B0E0983030F0ABE6B0E019
:1050F0009E3010F0ACE6B0E08C91492F50E0983033
:1051000060F421E030E001C0220F9A95EAF7209583
:1051100028232C93CF010C94582E9E3048F44850ED
:10512000510921E030E001C0220F4A95EAF7EFCFA4
:105130004E505109F6CF0895EF920F931F93CF93DE
:10514000DF93E80134E047FD34E1042E000C550BF9
:1051500057FF03C0519541955109E32E022F242F8B
:10516000AE010E941B29CE01DF91CF911F910F91BB
:10517000EF900895FB01DC0105900D920020E1F70E
:105180000895FC0105900020E9F7809590958E0F19
:105190009F1F08954BE055E00E94CF280895FA0123
:1051A000A191B081009719F41097E1F0CD01DC01D5
:1051B000CD010D90002011F4C00113C0FB0121911D
:1051C000222319F02015D9F7F3CFFB0121912015E7
:1051D00019F41E92119606C02223C1F70D900020EB
:1051E000A1F7D001FA01A193B0830895BB274A30FB
:1051F00031F4992322F4BDE2909581959F4F0C9450
:105200000229BB27FB015527AA27880F991FAA1F30
:10521000A41710F0A41B83955051B9F7A05DAA33D1
:1052200008F0A95DA193009779F7B111B19311929C
:10523000CB010C94522BA9E0B0E0E1E2F9E20C942E
:10524000632C6A01F22EB02E102FFBE3AF2EA016B6
:1052500008F41BE31F5F012F27E0AE014F5F5F4F94
:105260000E947A2ABC018981982F9970913009F4A3
:105270003FC09BE2E1FC04C09E2D9170E0FC3AC06F
:105280005E2D5071E82FE87083FF46C084E09111D5
:1052900001C083E0EF2DE81B8F1508F0E0E0D60198
:1052A0008E2F20E2552351F1992329F0D6019C93AA
:1052B000C60101966C0196012D5F3F4FE2FE24C0AE
:1052C0008EE4D6018C9391E411969C9311971296DB
:1052D0008C93D9018E2F90E281111BC0E20FF32F26
:1052E000F11D10828EEF9FEF2996ECE00C947F2C3D
:1052F0009DE2C6CF90E2C4CF2D9381508111FCCFA7
:10530000CE0ED11CE0E0D0CF8EE6D6018C9391E694
:10531000DBCF9D938150E0CF482F447082FF3DC08A
:1053200084E0911101C083E08F1510F4EF2DE81B8C
:10533000D6018E2F20E2552309F1992329F0D601B9
:105340009C93C60101966C0196012D5F3F4FE2FED2
:105350001BC089E4D6018C938EE411968C9311972F
:1053600086E412968C93D9018E2F90E2882309F45B
:10537000B5CF9D938150FACF2D9381508111FCCFF1
:10538000CE0ED11CE0E0D9CF89E6D6018C938EE613
:1053900011968C93119786E6E4CF9B0177FF02C0AC
:1053A00030E020E0A1E0B0E0911102C0B0E0A0E068
:1053B000F9013196AE0FBF1F8B2C912CBB2009F445
:1053C00061C05401EFEFAE1ABE0AAA0DBB1DFA165A
:1053D0001B0619F014F04F2D4A1B511188C0E3FC35
:1053E00059C07601A42FB0E2A1114FC0C40ED11C48
:1053F000992309F45BC040E0D6011196F601908331
:105400006D01552309F448C0012F060F9A81582FCA
:10541000507184FF03C0913309F4015010160CF051
:1054200047C0093008F008E0EEE2FE2E5B01A01A4A
:10543000B10885019194819491082F3F320729F496
:10544000D601FC92F60131966F016217730794F151
:10545000021713077CF5DB01A21BB30BAA24A3944C
:10546000B12CAC0EBD1EAA0DBB1D11968C91215006
:105470003109D601119628153905F4F0F60180831B
:105480006D01DBCFB12CA12CA0CFF701B1937F012F
:10549000A150AACF9111B0CFD601942F50E302C0F2
:1054A0005D9391509111FCCFC40ED11C40E0ACCF64
:1054B00001E0BACF80E3DBCF6217730731F4963394
:1054C00088F4953311F4552369F0F6018083FD01CA
:1054D000842F90E2811108C0A40FB11D1C9290E0AE
:1054E00080E002CF81E3F1CF91938150F3CF91110E
:1054F00083CF8ACF283008F027E03327DA01990FCD
:10550000311D87FD916000966105710539F43260A7
:105510002E5F3D9330E32A95E1F708959F3F30F0E9
:1055200080387105610509F03C5F3C5F3D93913027
:1055300008F08068911DDF93CF931F930F93FF9224
:10554000EF92192F987F9695E92F96959695E90FEA
:10555000FF27EE53FF4F99273327EE24FF24A7019F
:10556000E70105900894079428F4360FE71EF81E0B
:10557000491F511D660F771F881F991F0694A1F7B9
:105580000590079428F4E70EF81E491F561FC11D09
:10559000770F881F991F661F0694A1F7059007943F
:1055A00028F4F80E491F561FC71FD11D880F991FD9
:1055B000661F771F0694A1F70590079420F4490F02
:1055C000561FC71FD81F990F661F771F881F069485
:1055D000A9F784911095177041F0D695C795579506
:1055E0004795F794E7941A95C1F7E8E6F0E06894D8
:1055F0001590159135916591959105907FE2739580
:10560000E118F10A430B560BC90BD009C0F7E10CA6
:10561000F11E431F561FC91FD01D7EF4703311F4B5
:105620008A95E6CFE894015030F0080F0AF400277D
:10563000021708F4202F2395022F7A3328F079E3FC
:105640007D932A95E9F710C07D932A9589F60694F3
:1056500097956795379517951794E118F10A430BBD
:10566000560BC90BD00998F023957E9173957A3328
:1056700008F070E37C932013B8F77E9170617D93FE
:1056800030F0839571E37D9370E32A95E1F711245F
:10569000EF90FF900F911F91CF91DF91992787FD98
:1056A00090950895DC01FC01672F71917723E1F754
:1056B000329704C07C916D9370836291AE17BF07DF
:1056C000C8F30895E89409C097FB3EF4909580953F
:1056D000709561957F4F8F4F9F4F9923A9F0F92FB8
:1056E00096E9BB279395F695879577956795B79536
:1056F000F111F8CFFAF4BB0F11F460FF1BC06F5F1C
:105700007F4F8F4F9F4F16C0882311F096E911C02D
:10571000772321F09EE8872F762F05C0662371F04E
:1057200096E8862F70E060E02AF09A95660F771F62
:10573000881FDAF7880F9695879597F908950E9444
:10574000B22B0C94232C0E94152C38F00E941C2C98
:1057500020F0952311F00C940C2C0C94122C112495
:105760000C94572C0E94342C70F3959FC1F3950F25
:1057700050E0551F629FF001729FBB27F00DB11DD5
:10578000639FAA27F00DB11DAA1F649F6627B00D65
:10579000A11D661F829F2227B00DA11D621F739F4E
:1057A000B00DA11D621F839FA00D611D221F749F5C
:1057B0003327A00D611D231F849F600D211D822FA3
:1057C000762F6A2F11249F5750409AF0F1F08823CA
:1057D0004AF0EE0FFF1FBB1F661F771F881F9150F7
:1057E0005040A9F79E3F510580F00C940C2C0C946E
:1057F000572C5F3FE4F3983ED4F3869577956795F1
:10580000B795F795E7959F5FC1F7FE2B880F911D20
:105810009695879597F9089597F99F6780E870E0C6
:1058200060E008959FEF80EC089500240A94161616
:10583000170618060906089500240A94121613067E
:10584000140605060895092E0394000C11F488230C
:1058500052F0BB0F40F4BF2B11F460FF04C06F5F28
:105860007F4F8F4F9F4F089557FD9058440F551FFE
:1058700059F05F3F71F04795880F97FB991F61F0D2
:105880009F3F79F087950895121613061406551F49
:10589000F2CF4695F1DF08C0161617061806991FB5
:1058A000F1CF86957105610508940895E894BB27AA
:1058B00066277727CB0197F908952F923F924F9251
:1058C0005F926F927F928F929F92AF92BF92CF9290
:1058D000DF92EF92FF920F931F93CF93DF93CDB799
:1058E000DEB7CA1BDB0B0FB6F894DEBF0FBECDBF11
:1058F00009942A88398848885F846E847D848C84E2
:105900009B84AA84B984C884DF80EE80FD800C81EA
:105910001B81AA81B981CE0FD11D0FB6F894DEBFCD
:105920000FBECDBFED010895A29FB001B39FC0018E
:10593000A39F700D811D1124911DB29F700D811DBB
:105940001124911D08955058BB27AA270E94BB2CF3
:105950000C94232C0E94152C38F00E941C2C20F053
:1059600039F49F3F19F426F40C94122C0EF4E095B0
:10597000E7FB0C940C2CE92F0E94342C58F3BA1737
:10598000620773078407950720F079F4A6F50C9455
:10599000562C0EF4E0950B2EBA2FA02D0B01B90159
:1059A00090010C01CA01A0011124FF27591B99F095
:1059B000593F50F4503E68F11A16F040A22F232FA1
:1059C000342F4427585FF3CF469537952795A795F1
:1059D000F0405395C9F77EF41F16BA0B620B730B98
:1059E000840BBAF09150A1F0FF0FBB1F661F771F09
:1059F000881FC2F70EC0BA0F621F731F841F48F4BE
:105A0000879577956795B795F7959E3F08F0B0CF46
:105A10009395880F08F09927EE0F9795879508952D
:105A20000E94242D0C94232C0E941C2C58F00E94C0
:105A3000152C40F029F45F3F29F00C940C2C5111E7
:105A40000C94572C0C94122C0E94342C68F399233C
:105A5000B1F3552391F3951B550BBB27AA2762176A
:105A60007307840738F09F5F5F4F220F331F441F77
:105A7000AA1FA9F335D00E2E3AF0E0E832D09150AB
:105A80005040E695001CCAF72BD0FE2F29D0660F98
:105A9000771F881FBB1F261737074807AB07B0E8DB
:105AA00009F0BB0B802DBF01FF2793585F4F3AF0E1
:105AB0009E3F510578F00C940C2C0C94572C5F3FB2
:105AC000E4F3983ED4F3869577956795B795F79567
:105AD0009F5FC9F7880F911D9695879597F908954F
